{
  "contractName": "AMIS",
  "abi": [
    {
      "constant": true,
      "inputs": [],
      "name": "name",
      "outputs": [
        {
          "name": "",
          "type": "string"
        }
      ],
      "payable": false,
      "type": "function"
    },
    {
      "constant": false,
      "inputs": [
        {
          "name": "_spender",
          "type": "address"
        },
        {
          "name": "_value",
          "type": "uint256"
        }
      ],
      "name": "approve",
      "outputs": [
        {
          "name": "success",
          "type": "bool"
        }
      ],
      "payable": false,
      "type": "function"
    },
    {
      "constant": true,
      "inputs": [],
      "name": "totalSupply",
      "outputs": [
        {
          "name": "",
          "type": "uint256"
        }
      ],
      "payable": false,
      "type": "function"
    },
    {
      "constant": false,
      "inputs": [
        {
          "name": "_from",
          "type": "address"
        },
        {
          "name": "_to",
          "type": "address"
        },
        {
          "name": "_value",
          "type": "uint256"
        }
      ],
      "name": "transferFrom",
      "outputs": [
        {
          "name": "success",
          "type": "bool"
        }
      ],
      "payable": false,
      "type": "function"
    },
    {
      "constant": true,
      "inputs": [],
      "name": "decimals",
      "outputs": [
        {
          "name": "",
          "type": "uint8"
        }
      ],
      "payable": false,
      "type": "function"
    },
    {
      "constant": true,
      "inputs": [],
      "name": "version",
      "outputs": [
        {
          "name": "",
          "type": "string"
        }
      ],
      "payable": false,
      "type": "function"
    },
    {
      "constant": true,
      "inputs": [
        {
          "name": "_owner",
          "type": "address"
        }
      ],
      "name": "balanceOf",
      "outputs": [
        {
          "name": "balance",
          "type": "uint256"
        }
      ],
      "payable": false,
      "type": "function"
    },
    {
      "constant": true,
      "inputs": [],
      "name": "symbol",
      "outputs": [
        {
          "name": "",
          "type": "string"
        }
      ],
      "payable": false,
      "type": "function"
    },
    {
      "constant": false,
      "inputs": [
        {
          "name": "_to",
          "type": "address"
        },
        {
          "name": "_value",
          "type": "uint256"
        }
      ],
      "name": "transfer",
      "outputs": [
        {
          "name": "success",
          "type": "bool"
        }
      ],
      "payable": false,
      "type": "function"
    },
    {
      "constant": false,
      "inputs": [
        {
          "name": "_spender",
          "type": "address"
        },
        {
          "name": "_value",
          "type": "uint256"
        },
        {
          "name": "_extraData",
          "type": "bytes"
        }
      ],
      "name": "approveAndCall",
      "outputs": [
        {
          "name": "success",
          "type": "bool"
        }
      ],
      "payable": false,
      "type": "function"
    },
    {
      "constant": true,
      "inputs": [
        {
          "name": "_owner",
          "type": "address"
        },
        {
          "name": "_spender",
          "type": "address"
        }
      ],
      "name": "allowance",
      "outputs": [
        {
          "name": "remaining",
          "type": "uint256"
        }
      ],
      "payable": false,
      "type": "function"
    },
    {
      "payable": false,
      "type": "fallback"
    },
    {
      "anonymous": false,
      "inputs": [
        {
          "indexed": true,
          "name": "_from",
          "type": "address"
        },
        {
          "indexed": true,
          "name": "_to",
          "type": "address"
        },
        {
          "indexed": false,
          "name": "_value",
          "type": "uint256"
        }
      ],
      "name": "Transfer",
      "type": "event"
    },
    {
      "anonymous": false,
      "inputs": [
        {
          "indexed": true,
          "name": "_owner",
          "type": "address"
        },
        {
          "indexed": true,
          "name": "_spender",
          "type": "address"
        },
        {
          "indexed": false,
          "name": "_value",
          "type": "uint256"
        }
      ],
      "name": "Approval",
      "type": "event"
    }
  ],
  "bytecode": "0x6060604052604060405190810160405280600581526020017f4845302e3200000000000000000000000000000000000000000000000000000081526020015060069080519060200190828054600181600116156101000203166002900490600052602060002090601f016020900481019282601f106200008b57805160ff1916838001178555620000bc565b82800160010185558215620000bc579182015b82811115620000bb5782518255916020019190600101906200009e565b5b509050620000e491905b80821115620000e0576000816000905550600101620000c6565b5090565b505066470de4df820000604060405190810160405280600481526020017f414d4953000000000000000000000000000000000000000000000000000000008152602001506009604060405190810160405280600481526020017f414d4953000000000000000000000000000000000000000000000000000000008152602001505b83600060003373ffffffffffffffffffffffffffffffffffffffff16815260200190815260200160002081905550836002819055508260039080519060200190828054600181600116156101000203166002900490600052602060002090601f016020900481019282601f10620001e857805160ff191683800117855562000219565b8280016001018555821562000219579182015b8281111562000218578251825591602001919060010190620001fb565b5b5090506200024191905b808211156200023d57600081600090555060010162000223565b5090565b505081600460006101000a81548160ff02191690837f01000000000000000000000000000000000000000000000000000000000000009081020402179055508060059080519060200190828054600181600116156101000203166002900490600052602060002090601f016020900481019282601f10620002ce57805160ff1916838001178555620002ff565b82800160010185558215620002ff579182015b82811115620002fe578251825591602001919060010190620002e1565b5b5090506200032791905b808211156200032357600081600090555060010162000309565b5090565b50505b505050505b610cb9806200033e6000396000f3606060405236156100a7576000357c01000000000000000000000000000000000000000000000000000000009004806306fdde03146100b9578063095ea7b31461013457806318160ddd1461017057806323b872dd14610193578063313ce567146101d857806354fd4d50146101fe57806370a082311461027957806395d89b41146102aa578063a9059cbb14610325578063cae9ca5114610361578063dd62ed3e146103e0575b34610000576100b75b610000565b565b005b34610000576100c661041a565b60405180806020018281038252838181518152602001915080519060200190808383829060006004602084601f0104600302600f01f150905090810190601f1680156101265780820380516001836020036101000a031916815260200191505b509250505060405180910390f35b346100005761015860048080359060200190919080359060200190919050506104b8565b60405180821515815260200191505060405180910390f35b346100005761017d61057f565b6040518082815260200191505060405180910390f35b34610000576101c06004808035906020019091908035906020019091908035906020019091905050610585565b60405180821515815260200191505060405180910390f35b34610000576101e5610770565b604051808260ff16815260200191505060405180910390f35b346100005761020b610783565b60405180806020018281038252838181518152602001915080519060200190808383829060006004602084601f0104600302600f01f150905090810190601f16801561026b5780820380516001836020036101000a031916815260200191505b509250505060405180910390f35b34610000576102946004808035906020019091905050610821565b6040518082815260200191505060405180910390f35b34610000576102b7610855565b60405180806020018281038252838181518152602001915080519060200190808383829060006004602084601f0104600302600f01f150905090810190601f1680156103175780820380516001836020036101000a031916815260200191505b509250505060405180910390f35b346100005761034960048080359060200190919080359060200190919050506108f3565b60405180821515815260200191505060405180910390f35b34610000576103c8600480803590602001909190803590602001909190803590602001908201803590602001908080601f01602080910402602001604051908101604052809392919081815260200183838082843782019150505050505091905050610a23565b60405180821515815260200191505060405180910390f35b34610000576104046004808035906020019091908035906020019091905050610c5d565b6040518082815260200191505060405180910390f35b60038054600181600116156101000203166002900480601f0160208091040260200160405190810160405280929190818152602001828054600181600116156101000203166002900480156104b05780601f10610485576101008083540402835291602001916104b0565b820191906000526020600020905b81548152906001019060200180831161049357829003601f168201915b505050505081565b600081600160003373ffffffffffffffffffffffffffffffffffffffff16815260200190815260200160002060008573ffffffffffffffffffffffffffffffffffffffff168152602001908152602001600020819055508273ffffffffffffffffffffffffffffffffffffffff163373ffffffffffffffffffffffffffffffffffffffff167f8c5be1e5ebec7d5bd14f71427d1e84f3dd0314c0f7b2291e5b200ac8c7c3b925846040518082815260200191505060405180910390a3600190505b92915050565b60025481565b600081600060008673ffffffffffffffffffffffffffffffffffffffff1681526020019081526020016000205410158015610610575081600160008673ffffffffffffffffffffffffffffffffffffffff16815260200190815260200160002060003373ffffffffffffffffffffffffffffffffffffffff1681526020019081526020016000205410155b801561061c5750600082115b1561075f5781600060008573ffffffffffffffffffffffffffffffffffffffff1681526020019081526020016000206000828254019250508190555081600060008673ffffffffffffffffffffffffffffffffffffffff1681526020019081526020016000206000828254039250508190555081600160008673ffffffffffffffffffffffffffffffffffffffff16815260200190815260200160002060003373ffffffffffffffffffffffffffffffffffffffff168152602001908152602001600020600082825403925050819055508273ffffffffffffffffffffffffffffffffffffffff168473ffffffffffffffffffffffffffffffffffffffff167fddf252ad1be2c89b69c2b068fc378daa952ba7f163c4a11628f55a4df523b3ef846040518082815260200191505060405180910390a36001905061076956610768565b60009050610769565b5b9392505050565b600460009054906101000a900460ff1681565b60068054600181600116156101000203166002900480601f0160208091040260200160405190810160405280929190818152602001828054600181600116156101000203166002900480156108195780601f106107ee57610100808354040283529160200191610819565b820191906000526020600020905b8154815290600101906020018083116107fc57829003601f168201915b505050505081565b6000600060008373ffffffffffffffffffffffffffffffffffffffff1681526020019081526020016000205490505b919050565b60058054600181600116156101000203166002900480601f0160208091040260200160405190810160405280929190818152602001828054600181600116156101000203166002900480156108eb5780601f106108c0576101008083540402835291602001916108eb565b820191906000526020600020905b8154815290600101906020018083116108ce57829003601f168201915b505050505081565b600081600060003373ffffffffffffffffffffffffffffffffffffffff168152602001908152602001600020541015801561092e5750600082115b15610a135781600060003373ffffffffffffffffffffffffffffffffffffffff1681526020019081526020016000206000828254039250508190555081600060008573ffffffffffffffffffffffffffffffffffffffff168152602001908152602001600020600082825401925050819055508273ffffffffffffffffffffffffffffffffffffffff163373ffffffffffffffffffffffffffffffffffffffff167fddf252ad1be2c89b69c2b068fc378daa952ba7f163c4a11628f55a4df523b3ef846040518082815260200191505060405180910390a360019050610a1d56610a1c565b60009050610a1d565b5b92915050565b600082600160003373ffffffffffffffffffffffffffffffffffffffff16815260200190815260200160002060008673ffffffffffffffffffffffffffffffffffffffff168152602001908152602001600020819055508373ffffffffffffffffffffffffffffffffffffffff163373ffffffffffffffffffffffffffffffffffffffff167f8c5be1e5ebec7d5bd14f71427d1e84f3dd0314c0f7b2291e5b200ac8c7c3b925856040518082815260200191505060405180910390a38373ffffffffffffffffffffffffffffffffffffffff1660405180807f72656365697665417070726f76616c28616464726573732c75696e743235362c81526020017f616464726573732c627974657329000000000000000000000000000000000000815260200150602e01905060405180910390207c0100000000000000000000000000000000000000000000000000000000900433853086604051857c0100000000000000000000000000000000000000000000000000000000028152600401808573ffffffffffffffffffffffffffffffffffffffff1681526020018481526020018373ffffffffffffffffffffffffffffffffffffffff1681526020018280519060200190808383829060006004602084601f0104600302600f01f150905090810190601f168015610c295780820380516001836020036101000a031916815260200191505b509450505050506000604051808303816000876161da5a03f1925050501515610c5157610000565b600190505b9392505050565b6000600160008473ffffffffffffffffffffffffffffffffffffffff16815260200190815260200160002060008373ffffffffffffffffffffffffffffffffffffffff1681526020019081526020016000205490505b9291505056",
  "deployedBytecode": "0x6080604052600436106100f05763ffffffff7c010000000000000000000000000000000000000000000000000000000060003504166305d2035b81146100f557806306fdde031461011e578063095ea7b3146101a857806318160ddd146101cc57806323b872dd146101f3578063313ce5671461021d57806340c10f1914610248578063661884631461026c57806370a08231146102905780637d64bcb4146102b15780638da5cb5b146102c657806395d89b41146102f7578063a9059cbb1461030c578063be45fd6214610330578063d73dd62314610399578063dd62ed3e146103bd578063f2fde38b146103e4575b600080fd5b34801561010157600080fd5b5061010a610407565b604080519115158252519081900360200190f35b34801561012a57600080fd5b50610133610428565b6040805160208082528351818301528351919283929083019185019080838360005b8381101561016d578181015183820152602001610155565b50505050905090810190601f16801561019a5780820380516001836020036101000a031916815260200191505b509250505060405180910390f35b3480156101b457600080fd5b5061010a600160a060020a03600435166024356104b6565b3480156101d857600080fd5b506101e161051c565b60408051918252519081900360200190f35b3480156101ff57600080fd5b5061010a600160a060020a0360043581169060243516604435610522565b34801561022957600080fd5b5061023261069b565b6040805160ff9092168252519081900360200190f35b34801561025457600080fd5b5061010a600160a060020a03600435166024356106a4565b34801561027857600080fd5b5061010a600160a060020a03600435166024356107c1565b34801561029c57600080fd5b506101e1600160a060020a03600435166108b1565b3480156102bd57600080fd5b5061010a6108cc565b3480156102d257600080fd5b506102db610972565b60408051600160a060020a039092168252519081900360200190f35b34801561030357600080fd5b50610133610981565b34801561031857600080fd5b5061010a600160a060020a03600435166024356109db565b34801561033c57600080fd5b50604080516020600460443581810135601f810184900484028501840190955284845261010a948235600160a060020a03169460248035953695946064949201919081908401838280828437509497506109ff9650505050505050565b3480156103a557600080fd5b5061010a600160a060020a0360043516602435610bcb565b3480156103c957600080fd5b506101e1600160a060020a0360043581169060243516610c64565b3480156103f057600080fd5b50610405600160a060020a0360043516610c8f565b005b60065474010000000000000000000000000000000000000000900460ff1681565b6000805460408051602060026001851615610100026000190190941693909304601f810184900484028201840190925281815292918301828280156104ae5780601f10610483576101008083540402835291602001916104ae565b820191906000526020600020905b81548152906001019060200180831161049157829003601f168201915b505050505081565b336000818152600560209081526040808320600160a060020a038716808552908352818420869055815186815291519394909390927f8c5be1e5ebec7d5bd14f71427d1e84f3dd0314c0f7b2291e5b200ac8c7c3b925928290030190a350600192915050565b60045490565b6000600160a060020a038316151561053957600080fd5b600160a060020a03841660009081526003602052604090205482111561055e57600080fd5b600160a060020a038416600090815260056020908152604080832033845290915290205482111561058e57600080fd5b600160a060020a0384166000908152600360205260409020546105b7908363ffffffff610d2416565b600160a060020a0380861660009081526003602052604080822093909355908516815220546105ec908363ffffffff610d3616565b600160a060020a038085166000908152600360209081526040808320949094559187168152600582528281203382529091522054610630908363ffffffff610d2416565b600160a060020a03808616600081815260056020908152604080832033845282529182902094909455805186815290519287169391927fddf252ad1be2c89b69c2b068fc378daa952ba7f163c4a11628f55a4df523b3ef929181900390910190a35060019392505050565b60025460ff1681565b600654600090600160a060020a031633146106be57600080fd5b60065474010000000000000000000000000000000000000000900460ff16156106e657600080fd5b6004546106f9908363ffffffff610d3616565b600455600160a060020a038316600090815260036020526040902054610725908363ffffffff610d3616565b600160a060020a038416600081815260036020908152604091829020939093558051858152905191927f0f6798a560793a54c3bcfe86a93cde1e73087d944c0ea20544137d412139688592918290030190a2604080518381529051600160a060020a038516916000917fddf252ad1be2c89b69c2b068fc378daa952ba7f163c4a11628f55a4df523b3ef9181900360200190a350600192915050565b336000908152600560209081526040808320600160a060020a03861684529091528120548083111561081657336000908152600560209081526040808320600160a060020a038816845290915281205561084b565b610826818463ffffffff610d2416565b336000908152600560209081526040808320600160a060020a03891684529091529020555b336000818152600560209081526040808320600160a060020a0389168085529083529281902054815190815290519293927f8c5be1e5ebec7d5bd14f71427d1e84f3dd0314c0f7b2291e5b200ac8c7c3b925929181900390910190a35060019392505050565b600160a060020a031660009081526003602052604090205490565b600654600090600160a060020a031633146108e657600080fd5b60065474010000000000000000000000000000000000000000900460ff161561090e57600080fd5b6006805474ff00000000000000000000000000000000000000001916740100000000000000000000000000000000000000001790556040517fae5184fba832cb2b1f702aca6117b8d265eaf03ad33eb133f19dde0f5920fa0890600090a150600190565b600654600160a060020a031681565b60018054604080516020600284861615610100026000190190941693909304601f810184900484028201840190925281815292918301828280156104ae5780601f10610483576101008083540402835291602001916104ae565b600060606109ea8484836109ff565b15156109f557600080fd5b5060019392505050565b6000833b81610a0e8686610d4c565b1515610a1957600080fd5b6000821115610b1157506040517fc0ee0b8a0000000000000000000000000000000000000000000000000000000081523360048201818152602483018790526060604484019081528651606485015286518994600160a060020a0386169463c0ee0b8a9490938b938b9360840190602085019080838360005b83811015610aaa578181015183820152602001610a92565b50505050905090810190601f168015610ad75780820380516001836020036101000a031916815260200191505b50945050505050600060405180830381600087803b158015610af857600080fd5b505af1158015610b0c573d6000803e3d6000fd5b505050505b8486600160a060020a031633600160a060020a03167fe19260aff97b920c7df27010903aeb9c8d2be5d310a2c67824cf3f15396e4c16876040518080602001828103825283818151815260200191508051906020019080838360005b83811015610b85578181015183820152602001610b6d565b50505050905090810190601f168015610bb25780820380516001836020036101000a031916815260200191505b509250505060405180910390a450600195945050505050565b336000908152600560209081526040808320600160a060020a0386168452909152812054610bff908363ffffffff610d3616565b336000818152600560209081526040808320600160a060020a0389168085529083529281902085905580519485525191937f8c5be1e5ebec7d5bd14f71427d1e84f3dd0314c0f7b2291e5b200ac8c7c3b925929081900390910190a350600192915050565b600160a060020a03918216600090815260056020908152604080832093909416825291909152205490565b600654600160a060020a03163314610ca657600080fd5b600160a060020a0381161515610cbb57600080fd5b600654604051600160a060020a038084169216907f8be0079c531659141344cd1fd0a4f28419497f9722a3daafe3b4186f6b6457e090600090a36006805473ffffffffffffffffffffffffffffffffffffffff1916600160a060020a0392909216919091179055565b600082821115610d3057fe5b50900390565b600082820183811015610d4557fe5b9392505050565b6000600160a060020a0383161515610d6357600080fd5b33600090815260036020526040902054821115610d7f57600080fd5b33600090815260036020526040902054610d9f908363ffffffff610d2416565b3360009081526003602052604080822092909255600160a060020a03851681522054610dd1908363ffffffff610d3616565b600160a060020a0384166000818152600360209081526040918290209390935580518581529051919233927fddf252ad1be2c89b69c2b068fc378daa952ba7f163c4a11628f55a4df523b3ef9281900390910190a3506001929150505600a165627a7a72305820a908e95308a0f2d70025d9e8e350eedd44df08992a80eaa69fa54f813af1af9f0029",
  "source": "pragma solidity ^0.4.6;\n\nimport \"zeppelin-solidity/contracts/token/ERC20/DetailedERC20.sol\";\nimport \"zeppelin-solidity/contracts/token/ERC20/MintableToken.sol\";\n\nimport './tokenfoundry/ERC223BasicToken.sol';\n\n\n/**\n  * @title Token for the Amishop project.\n  */\ncontract AMIS is DetailedERC20, MintableToken, ERC223BasicToken {\n    string constant NAME = \"Dether\";\n    string constant SYMBOL = \"DTH\";\n    uint8 constant DECIMALS = 18;\n\n    /**\n      *@dev Constructor that set Detailed of the ERC20 token.\n      */\n    function DetherToken()\n        DetailedERC20(NAME, SYMBOL, DECIMALS)\n        public\n    {}\n}\n",
  "sourcePath": "/app/contracts/dth/AMIS.sol",
  "compiler": {
    "name": "solc",
    "version": "v0.4.6+commit.2dabbdf0"
  },
  "schemaVersion": "2.0.1",
  "updatedAt": "2018-10-16T07:35:53.006Z"
}