{
  "contractName": "DetherSetup",
  "abi": [
    {
      "constant": true,
      "inputs": [],
      "name": "cfoAddress",
      "outputs": [
        {
          "name": "",
          "type": "address"
        }
      ],
      "payable": false,
      "stateMutability": "view",
      "type": "function"
    },
    {
      "constant": true,
      "inputs": [],
      "name": "ceoAddress",
      "outputs": [
        {
          "name": "",
          "type": "address"
        }
      ],
      "payable": false,
      "stateMutability": "view",
      "type": "function"
    },
    {
      "constant": true,
      "inputs": [],
      "name": "kycCertifier",
      "outputs": [
        {
          "name": "",
          "type": "address"
        }
      ],
      "payable": false,
      "stateMutability": "view",
      "type": "function"
    },
    {
      "constant": true,
      "inputs": [
        {
          "name": "",
          "type": "bytes2"
        }
      ],
      "name": "licenceShop",
      "outputs": [
        {
          "name": "",
          "type": "uint256"
        }
      ],
      "payable": false,
      "stateMutability": "view",
      "type": "function"
    },
    {
      "constant": false,
      "inputs": [
        {
          "name": "_newCMO",
          "type": "address"
        }
      ],
      "name": "setCMO",
      "outputs": [],
      "payable": false,
      "stateMutability": "nonpayable",
      "type": "function"
    },
    {
      "constant": false,
      "inputs": [
        {
          "name": "_newCSO",
          "type": "address"
        }
      ],
      "name": "setCSO",
      "outputs": [],
      "payable": false,
      "stateMutability": "nonpayable",
      "type": "function"
    },
    {
      "constant": true,
      "inputs": [],
      "name": "csoAddress",
      "outputs": [
        {
          "name": "",
          "type": "address"
        }
      ],
      "payable": false,
      "stateMutability": "view",
      "type": "function"
    },
    {
      "constant": false,
      "inputs": [
        {
          "name": "_newCEO",
          "type": "address"
        }
      ],
      "name": "setCEO",
      "outputs": [],
      "payable": false,
      "stateMutability": "nonpayable",
      "type": "function"
    },
    {
      "constant": true,
      "inputs": [],
      "name": "smsCertifier",
      "outputs": [
        {
          "name": "",
          "type": "address"
        }
      ],
      "payable": false,
      "stateMutability": "view",
      "type": "function"
    },
    {
      "constant": false,
      "inputs": [],
      "name": "unpause",
      "outputs": [],
      "payable": false,
      "stateMutability": "nonpayable",
      "type": "function"
    },
    {
      "constant": false,
      "inputs": [
        {
          "name": "_newCFO",
          "type": "address"
        }
      ],
      "name": "setCFO",
      "outputs": [],
      "payable": false,
      "stateMutability": "nonpayable",
      "type": "function"
    },
    {
      "constant": false,
      "inputs": [
        {
          "name": "_moderator",
          "type": "address"
        }
      ],
      "name": "removeShopModerator",
      "outputs": [],
      "payable": false,
      "stateMutability": "nonpayable",
      "type": "function"
    },
    {
      "constant": true,
      "inputs": [],
      "name": "paused",
      "outputs": [
        {
          "name": "",
          "type": "bool"
        }
      ],
      "payable": false,
      "stateMutability": "view",
      "type": "function"
    },
    {
      "constant": true,
      "inputs": [
        {
          "name": "",
          "type": "address"
        }
      ],
      "name": "shopModerators",
      "outputs": [
        {
          "name": "",
          "type": "bool"
        }
      ],
      "payable": false,
      "stateMutability": "view",
      "type": "function"
    },
    {
      "constant": true,
      "inputs": [
        {
          "name": "",
          "type": "bytes2"
        }
      ],
      "name": "openedCountryShop",
      "outputs": [
        {
          "name": "",
          "type": "bool"
        }
      ],
      "payable": false,
      "stateMutability": "view",
      "type": "function"
    },
    {
      "constant": false,
      "inputs": [
        {
          "name": "_moderator",
          "type": "address"
        }
      ],
      "name": "setShopModerator",
      "outputs": [],
      "payable": false,
      "stateMutability": "nonpayable",
      "type": "function"
    },
    {
      "constant": false,
      "inputs": [],
      "name": "pause",
      "outputs": [],
      "payable": false,
      "stateMutability": "nonpayable",
      "type": "function"
    },
    {
      "constant": true,
      "inputs": [],
      "name": "cmoAddress",
      "outputs": [
        {
          "name": "",
          "type": "address"
        }
      ],
      "payable": false,
      "stateMutability": "view",
      "type": "function"
    },
    {
      "constant": false,
      "inputs": [
        {
          "name": "_moderator",
          "type": "address"
        }
      ],
      "name": "removeTellerModerator",
      "outputs": [],
      "payable": false,
      "stateMutability": "nonpayable",
      "type": "function"
    },
    {
      "constant": true,
      "inputs": [
        {
          "name": "",
          "type": "address"
        }
      ],
      "name": "tellerModerators",
      "outputs": [
        {
          "name": "",
          "type": "bool"
        }
      ],
      "payable": false,
      "stateMutability": "view",
      "type": "function"
    },
    {
      "constant": true,
      "inputs": [
        {
          "name": "",
          "type": "bytes2"
        }
      ],
      "name": "openedCountryTeller",
      "outputs": [
        {
          "name": "",
          "type": "bool"
        }
      ],
      "payable": false,
      "stateMutability": "view",
      "type": "function"
    },
    {
      "constant": false,
      "inputs": [
        {
          "name": "_moderator",
          "type": "address"
        }
      ],
      "name": "setTellerModerator",
      "outputs": [],
      "payable": false,
      "stateMutability": "nonpayable",
      "type": "function"
    },
    {
      "constant": true,
      "inputs": [],
      "name": "run2",
      "outputs": [
        {
          "name": "",
          "type": "bool"
        }
      ],
      "payable": false,
      "stateMutability": "view",
      "type": "function"
    },
    {
      "constant": true,
      "inputs": [
        {
          "name": "",
          "type": "bytes2"
        }
      ],
      "name": "licenceTeller",
      "outputs": [
        {
          "name": "",
          "type": "uint256"
        }
      ],
      "payable": false,
      "stateMutability": "view",
      "type": "function"
    },
    {
      "constant": true,
      "inputs": [],
      "name": "run1",
      "outputs": [
        {
          "name": "",
          "type": "bool"
        }
      ],
      "payable": false,
      "stateMutability": "view",
      "type": "function"
    },
    {
      "anonymous": false,
      "inputs": [
        {
          "indexed": false,
          "name": "newContract",
          "type": "address"
        }
      ],
      "name": "ContractUpgrade",
      "type": "event"
    },
    {
      "constant": true,
      "inputs": [
        {
          "name": "_user",
          "type": "address"
        }
      ],
      "name": "isTier1",
      "outputs": [
        {
          "name": "",
          "type": "bool"
        }
      ],
      "payable": false,
      "stateMutability": "view",
      "type": "function"
    },
    {
      "constant": true,
      "inputs": [
        {
          "name": "_user",
          "type": "address"
        }
      ],
      "name": "isTier2",
      "outputs": [
        {
          "name": "",
          "type": "bool"
        }
      ],
      "payable": false,
      "stateMutability": "view",
      "type": "function"
    },
    {
      "constant": false,
      "inputs": [
        {
          "name": "_smsCertifier",
          "type": "address"
        }
      ],
      "name": "setSmsCertifier",
      "outputs": [],
      "payable": false,
      "stateMutability": "nonpayable",
      "type": "function"
    },
    {
      "constant": false,
      "inputs": [
        {
          "name": "_kycCertifier",
          "type": "address"
        }
      ],
      "name": "setKycCertifier",
      "outputs": [],
      "payable": false,
      "stateMutability": "nonpayable",
      "type": "function"
    },
    {
      "constant": false,
      "inputs": [
        {
          "name": "country",
          "type": "bytes2"
        },
        {
          "name": "price",
          "type": "uint256"
        }
      ],
      "name": "setLicenceShopPrice",
      "outputs": [],
      "payable": false,
      "stateMutability": "nonpayable",
      "type": "function"
    },
    {
      "constant": false,
      "inputs": [
        {
          "name": "country",
          "type": "bytes2"
        },
        {
          "name": "price",
          "type": "uint256"
        }
      ],
      "name": "setLicenceTellerPrice",
      "outputs": [],
      "payable": false,
      "stateMutability": "nonpayable",
      "type": "function"
    },
    {
      "constant": false,
      "inputs": [
        {
          "name": "_country",
          "type": "bytes2"
        }
      ],
      "name": "openZoneShop",
      "outputs": [],
      "payable": false,
      "stateMutability": "nonpayable",
      "type": "function"
    },
    {
      "constant": false,
      "inputs": [
        {
          "name": "_country",
          "type": "bytes2"
        }
      ],
      "name": "closeZoneShop",
      "outputs": [],
      "payable": false,
      "stateMutability": "nonpayable",
      "type": "function"
    },
    {
      "constant": false,
      "inputs": [
        {
          "name": "_country",
          "type": "bytes2"
        }
      ],
      "name": "openZoneTeller",
      "outputs": [],
      "payable": false,
      "stateMutability": "nonpayable",
      "type": "function"
    },
    {
      "constant": false,
      "inputs": [
        {
          "name": "_country",
          "type": "bytes2"
        }
      ],
      "name": "closeZoneTeller",
      "outputs": [],
      "payable": false,
      "stateMutability": "nonpayable",
      "type": "function"
    }
  ],
  "bytecode": "0x60806040526006805462ffffff1916905534801561001c57600080fd5b50610d5b8061002c6000396000f3006080604052600436106101b65763ffffffff7c01000000000000000000000000000000000000000000000000000000006000350416630519ce7981146101bb5780630a0f8168146101ec5780630d46f91a146102015780630d926f7a146102165780631d32f1061461024a5780632072863b1461026e5780632105c0491461028f5780632272b0af146102b057806327d7874c146102c55780632e3a4def146102e657806330a553161461031b5780633f4ba83a146103305780634e0a337914610345578063529e65e1146103665780635c975abb1461038757806366d5eb9b1461039c57806367bb15ad146103be578063744955a9146103df57806378843a9514610401578063809ffb20146104225780638456cb59146104435780638c267b97146104585780639a8061e81461046d5780639ae120dd14610492578063aa5a11c5146104b4578063ba2a98f2146104d5578063c640ee3d146104f7578063ca34333b14610518578063d0a4a81b1461053a578063d4f639ea1461055b578063e019ac2914610570578063f2d15c4814610591578063f3943ca9146105b6578063f983c0fa146105d8578063fcf3438c146105ed575b600080fd5b3480156101c757600080fd5b506101d061060e565b60408051600160a060020a039092168252519081900360200190f35b3480156101f857600080fd5b506101d061061d565b34801561020d57600080fd5b506101d061062c565b34801561022257600080fd5b50610238600160f060020a03196004351661063b565b60408051918252519081900360200190f35b34801561025657600080fd5b5061026c600160f060020a03196004351661064d565b005b34801561027a57600080fd5b5061026c600160a060020a0360043516610689565b34801561029b57600080fd5b5061026c600160a060020a03600435166106e4565b3480156102bc57600080fd5b506101d061073f565b3480156102d157600080fd5b5061026c600160a060020a036004351661074e565b3480156102f257600080fd5b50610307600160a060020a03600435166107a9565b604080519115158252519081900360200190f35b34801561032757600080fd5b506101d0610846565b34801561033c57600080fd5b5061026c61085c565b34801561035157600080fd5b5061026c600160a060020a0360043516610890565b34801561037257600080fd5b5061026c600160a060020a03600435166108eb565b34801561039357600080fd5b50610307610923565b3480156103a857600080fd5b5061026c600160f060020a03196004351661092c565b3480156103ca57600080fd5b50610307600160a060020a0360043516610968565b3480156103eb57600080fd5b50610307600160f060020a03196004351661097d565b34801561040d57600080fd5b50610307600160a060020a0360043516610992565b34801561042e57600080fd5b5061026c600160a060020a0360043516610a03565b34801561044f57600080fd5b5061026c610a53565b34801561046457600080fd5b506101d0610a89565b34801561047957600080fd5b5061026c600160f060020a031960043516602435610a98565b34801561049e57600080fd5b5061026c600160f060020a031960043516610acc565b3480156104c057600080fd5b5061026c600160a060020a0360043516610b05565b3480156104e157600080fd5b5061026c600160f060020a031960043516610b3d565b34801561050357600080fd5b50610307600160a060020a0360043516610b76565b34801561052457600080fd5b50610307600160f060020a031960043516610b8b565b34801561054657600080fd5b5061026c600160a060020a0360043516610ba0565b34801561056757600080fd5b50610307610bf0565b34801561057c57600080fd5b5061026c600160a060020a0360043516610bff565b34801561059d57600080fd5b5061026c600160f060020a031960043516602435610c6d565b3480156105c257600080fd5b50610238600160f060020a031960043516610ca1565b3480156105e457600080fd5b50610307610cb3565b3480156105f957600080fd5b5061026c600160a060020a0360043516610cc1565b600354600160a060020a031681565b600054600160a060020a031681565b600754600160a060020a031681565b600a6020526000908152604090205481565b600154600160a060020a0316331461066457600080fd5b600160f060020a0319166000908152600960205260409020805460ff19166001179055565b600054600160a060020a031633146106a057600080fd5b600160a060020a03811615156106b557600080fd5b6001805473ffffffffffffffffffffffffffffffffffffffff1916600160a060020a0392909216919091179055565b600054600160a060020a031633146106fb57600080fd5b600160a060020a038116151561071057600080fd5b6002805473ffffffffffffffffffffffffffffffffffffffff1916600160a060020a0392909216919091179055565b600254600160a060020a031681565b600054600160a060020a0316331461076557600080fd5b600160a060020a038116151561077a57600080fd5b6000805473ffffffffffffffffffffffffffffffffffffffff1916600160a060020a0392909216919091179055565b600754604080517fcc1d4c02000000000000000000000000000000000000000000000000000000008152600160a060020a0384811660048301529151600093929092169163cc1d4c029160248082019260209290919082900301818787803b15801561081457600080fd5b505af1158015610828573d6000803e3d6000fd5b505050506040513d602081101561083e57600080fd5b505192915050565b60065463010000009004600160a060020a031681565b600054600160a060020a0316331461087357600080fd5b60065460ff16151561088457600080fd5b6006805460ff19169055565b600054600160a060020a031633146108a757600080fd5b600160a060020a03811615156108bc57600080fd5b6003805473ffffffffffffffffffffffffffffffffffffffff1916600160a060020a0392909216919091179055565b600054600160a060020a0316331461090257600080fd5b600160a060020a03166000908152600460205260409020805460ff19169055565b60065460ff1681565b600154600160a060020a0316331461094357600080fd5b600160f060020a0319166000908152600860205260409020805460ff19166001179055565b60046020526000908152604090205460ff1681565b60086020526000908152604090205460ff1681565b600654604080517fcc1d4c02000000000000000000000000000000000000000000000000000000008152600160a060020a0384811660048301529151600093630100000090049092169163cc1d4c029160248082019260209290919082900301818787803b15801561081457600080fd5b600054600160a060020a03163314610a1a57600080fd5b600160a060020a0381161515610a2f57600080fd5b600160a060020a03166000908152600460205260409020805460ff19166001179055565b600054600160a060020a03163314610a6a57600080fd5b60065460ff1615610a7a57600080fd5b6006805460ff19166001179055565b600154600160a060020a031681565b600154600160a060020a03163314610aaf57600080fd5b600160f060020a03199091166000908152600a6020526040902055565b600154600160a060020a03163314610ae357600080fd5b600160f060020a0319166000908152600960205260409020805460ff19169055565b600054600160a060020a03163314610b1c57600080fd5b600160a060020a03166000908152600560205260409020805460ff19169055565b600154600160a060020a03163314610b5457600080fd5b600160f060020a0319166000908152600860205260409020805460ff19169055565b60056020526000908152604090205460ff1681565b60096020526000908152604090205460ff1681565b600054600160a060020a03163314610bb757600080fd5b600160a060020a0381161515610bcc57600080fd5b600160a060020a03166000908152600560205260409020805460ff19166001179055565b60065462010000900460ff1681565b600054600160a060020a03163314610c1657600080fd5b60065462010000900460ff1615610c2c57600080fd5b60078054600160a060020a0390921673ffffffffffffffffffffffffffffffffffffffff199092169190911790556006805462ff0000191662010000179055565b600154600160a060020a03163314610c8457600080fd5b600160f060020a03199091166000908152600b6020526040902055565b600b6020526000908152604090205481565b600654610100900460ff1681565b600054600160a060020a03163314610cd857600080fd5b600654610100900460ff1615610ced57600080fd5b6006805461ff0019600160a060020a0390931663010000000276ffffffffffffffffffffffffffffffffffffffff0000001990911617919091166101001790555600a165627a7a72305820e07d554021a62be47584bc963265f3d3ff54a1a07f1228588b3d4746d4e8d09f0029",
  "source": "pragma solidity ^0.4.21;\n\nimport './certifier/Certifier.sol';\nimport './DetherAccessControl.sol';\nimport './zepellin/SafeMath.sol';\n\n/*\n * This contract aim to manage the generals value fo the contracts\n */\n\ncontract DetherSetup is DetherAccessControl  {\n\n  bool public run1 = false;\n  bool public run2 = false;\n  // -Need to be whitelisted to be able to register in the contract as a shop or\n  // teller, there is two level of identification.\n  // -This identification method are now centralised and processed by dether, but\n  // will be decentralised soon\n  Certifier public smsCertifier;\n  Certifier public kycCertifier;\n  // Zone need to be open by the CMO before accepting registration\n  // The bytes2 parameter wait for a country ID (ex: FR (0x4652 in hex) for france cf:README)\n  mapping(bytes2 => bool) public openedCountryShop;\n  mapping(bytes2 => bool) public openedCountryTeller;\n  // For registering in a zone you need to stake DTH\n  // The price can differ by country\n  // Uts now a fixed price by the CMO but the price will adjusted automatically\n  // regarding different factor in the futur smart contract\n  mapping(bytes2 => uint) public licenceShop;\n  mapping(bytes2 => uint) public licenceTeller;\n\n  modifier tier1(address _user) {\n    require(smsCertifier.certified(_user));\n    _;\n  }\n  modifier tier2(address _user) {\n    require(kycCertifier.certified(_user));\n    _;\n  }\n  modifier isZoneShopOpen(bytes2 _country) {\n    require(openedCountryShop[_country]);\n    _;\n  }\n  modifier isZoneTellerOpen(bytes2 _country) {\n    require(openedCountryTeller[_country]);\n    _;\n  }\n\n  function isTier1(address _user) public view returns(bool) {\n    return smsCertifier.certified(_user);\n  }\n  \n  function isTier2(address _user) public view returns(bool) {\n    return kycCertifier.certified(_user);\n  }\n\n  /**\n   * INIT\n   */\n  function setSmsCertifier (address _smsCertifier) external onlyCEO {\n    require(!run1);\n    smsCertifier = Certifier(_smsCertifier);\n    run1 = true;\n  }\n  /**\n   * CORE FUNCTION\n   */\n  function setKycCertifier (address _kycCertifier) external onlyCEO {\n    require(!run2);\n    kycCertifier = Certifier(_kycCertifier);\n    run2 = true;\n  }\n  function setLicenceShopPrice(bytes2 country, uint price) external onlyCMO {\n    licenceShop[country] = price;\n  }\n  function setLicenceTellerPrice(bytes2 country, uint price) external onlyCMO {\n    licenceTeller[country] = price;\n  }\n  function openZoneShop(bytes2 _country) external onlyCMO {\n    openedCountryShop[_country] = true;\n  }\n  function closeZoneShop(bytes2 _country) external onlyCMO {\n    openedCountryShop[_country] = false;\n  }\n  function openZoneTeller(bytes2 _country) external onlyCMO {\n    openedCountryTeller[_country] = true;\n  }\n  function closeZoneTeller(bytes2 _country) external onlyCMO {\n    openedCountryTeller[_country] = false;\n  }\n}\n",
  "sourcePath": "/app/contracts/DetherSetup.sol",
  "compiler": {
    "name": "solc",
    "version": "0.4.24+commit.e67f0147.Emscripten.clang"
  },
  "schemaVersion": "2.0.1",
  "updatedAt": "2018-10-16T07:35:52.813Z"
}