{
  "contractName": "DetherCore",
  "abi": [
    {
      "constant": true,
      "inputs": [],
      "name": "dth",
      "outputs": [
        {
          "name": "",
          "type": "address"
        }
      ],
      "payable": false,
      "stateMutability": "view",
      "type": "function"
    },
    {
      "constant": true,
      "inputs": [],
      "name": "cfoAddress",
      "outputs": [
        {
          "name": "",
          "type": "address"
        }
      ],
      "payable": false,
      "stateMutability": "view",
      "type": "function"
    },
    {
      "constant": true,
      "inputs": [],
      "name": "ceoAddress",
      "outputs": [
        {
          "name": "",
          "type": "address"
        }
      ],
      "payable": false,
      "stateMutability": "view",
      "type": "function"
    },
    {
      "constant": true,
      "inputs": [],
      "name": "kycCertifier",
      "outputs": [
        {
          "name": "",
          "type": "address"
        }
      ],
      "payable": false,
      "stateMutability": "view",
      "type": "function"
    },
    {
      "constant": true,
      "inputs": [
        {
          "name": "",
          "type": "bytes2"
        }
      ],
      "name": "licenceShop",
      "outputs": [
        {
          "name": "",
          "type": "uint256"
        }
      ],
      "payable": false,
      "stateMutability": "view",
      "type": "function"
    },
    {
      "constant": false,
      "inputs": [
        {
          "name": "_country",
          "type": "bytes2"
        }
      ],
      "name": "openZoneTeller",
      "outputs": [],
      "payable": false,
      "stateMutability": "nonpayable",
      "type": "function"
    },
    {
      "constant": false,
      "inputs": [
        {
          "name": "_newCMO",
          "type": "address"
        }
      ],
      "name": "setCMO",
      "outputs": [],
      "payable": false,
      "stateMutability": "nonpayable",
      "type": "function"
    },
    {
      "constant": false,
      "inputs": [
        {
          "name": "_newCSO",
          "type": "address"
        }
      ],
      "name": "setCSO",
      "outputs": [],
      "payable": false,
      "stateMutability": "nonpayable",
      "type": "function"
    },
    {
      "constant": true,
      "inputs": [],
      "name": "csoAddress",
      "outputs": [
        {
          "name": "",
          "type": "address"
        }
      ],
      "payable": false,
      "stateMutability": "view",
      "type": "function"
    },
    {
      "constant": true,
      "inputs": [],
      "name": "priceOracle",
      "outputs": [
        {
          "name": "",
          "type": "address"
        }
      ],
      "payable": false,
      "stateMutability": "view",
      "type": "function"
    },
    {
      "constant": false,
      "inputs": [
        {
          "name": "_newCEO",
          "type": "address"
        }
      ],
      "name": "setCEO",
      "outputs": [],
      "payable": false,
      "stateMutability": "nonpayable",
      "type": "function"
    },
    {
      "constant": true,
      "inputs": [
        {
          "name": "_user",
          "type": "address"
        }
      ],
      "name": "isTier2",
      "outputs": [
        {
          "name": "",
          "type": "bool"
        }
      ],
      "payable": false,
      "stateMutability": "view",
      "type": "function"
    },
    {
      "constant": true,
      "inputs": [],
      "name": "smsCertifier",
      "outputs": [
        {
          "name": "",
          "type": "address"
        }
      ],
      "payable": false,
      "stateMutability": "view",
      "type": "function"
    },
    {
      "constant": false,
      "inputs": [],
      "name": "unpause",
      "outputs": [],
      "payable": false,
      "stateMutability": "nonpayable",
      "type": "function"
    },
    {
      "constant": false,
      "inputs": [
        {
          "name": "_newCFO",
          "type": "address"
        }
      ],
      "name": "setCFO",
      "outputs": [],
      "payable": false,
      "stateMutability": "nonpayable",
      "type": "function"
    },
    {
      "constant": false,
      "inputs": [
        {
          "name": "_moderator",
          "type": "address"
        }
      ],
      "name": "removeShopModerator",
      "outputs": [],
      "payable": false,
      "stateMutability": "nonpayable",
      "type": "function"
    },
    {
      "constant": true,
      "inputs": [],
      "name": "paused",
      "outputs": [
        {
          "name": "",
          "type": "bool"
        }
      ],
      "payable": false,
      "stateMutability": "view",
      "type": "function"
    },
    {
      "constant": false,
      "inputs": [
        {
          "name": "_country",
          "type": "bytes2"
        }
      ],
      "name": "openZoneShop",
      "outputs": [],
      "payable": false,
      "stateMutability": "nonpayable",
      "type": "function"
    },
    {
      "constant": true,
      "inputs": [
        {
          "name": "",
          "type": "address"
        }
      ],
      "name": "shopModerators",
      "outputs": [
        {
          "name": "",
          "type": "bool"
        }
      ],
      "payable": false,
      "stateMutability": "view",
      "type": "function"
    },
    {
      "constant": true,
      "inputs": [
        {
          "name": "",
          "type": "bytes2"
        }
      ],
      "name": "openedCountryShop",
      "outputs": [
        {
          "name": "",
          "type": "bool"
        }
      ],
      "payable": false,
      "stateMutability": "view",
      "type": "function"
    },
    {
      "constant": true,
      "inputs": [],
      "name": "bank",
      "outputs": [
        {
          "name": "",
          "type": "address"
        }
      ],
      "payable": false,
      "stateMutability": "view",
      "type": "function"
    },
    {
      "constant": true,
      "inputs": [
        {
          "name": "_user",
          "type": "address"
        }
      ],
      "name": "isTier1",
      "outputs": [
        {
          "name": "",
          "type": "bool"
        }
      ],
      "payable": false,
      "stateMutability": "view",
      "type": "function"
    },
    {
      "constant": false,
      "inputs": [
        {
          "name": "_moderator",
          "type": "address"
        }
      ],
      "name": "setShopModerator",
      "outputs": [],
      "payable": false,
      "stateMutability": "nonpayable",
      "type": "function"
    },
    {
      "constant": false,
      "inputs": [],
      "name": "pause",
      "outputs": [],
      "payable": false,
      "stateMutability": "nonpayable",
      "type": "function"
    },
    {
      "constant": true,
      "inputs": [
        {
          "name": "",
          "type": "uint256"
        }
      ],
      "name": "shopIndex",
      "outputs": [
        {
          "name": "",
          "type": "address"
        }
      ],
      "payable": false,
      "stateMutability": "view",
      "type": "function"
    },
    {
      "constant": true,
      "inputs": [],
      "name": "cmoAddress",
      "outputs": [
        {
          "name": "",
          "type": "address"
        }
      ],
      "payable": false,
      "stateMutability": "view",
      "type": "function"
    },
    {
      "constant": true,
      "inputs": [
        {
          "name": "",
          "type": "uint256"
        }
      ],
      "name": "tellerIndex",
      "outputs": [
        {
          "name": "",
          "type": "address"
        }
      ],
      "payable": false,
      "stateMutability": "view",
      "type": "function"
    },
    {
      "constant": false,
      "inputs": [
        {
          "name": "country",
          "type": "bytes2"
        },
        {
          "name": "price",
          "type": "uint256"
        }
      ],
      "name": "setLicenceShopPrice",
      "outputs": [],
      "payable": false,
      "stateMutability": "nonpayable",
      "type": "function"
    },
    {
      "constant": false,
      "inputs": [
        {
          "name": "_country",
          "type": "bytes2"
        }
      ],
      "name": "closeZoneTeller",
      "outputs": [],
      "payable": false,
      "stateMutability": "nonpayable",
      "type": "function"
    },
    {
      "constant": false,
      "inputs": [
        {
          "name": "_moderator",
          "type": "address"
        }
      ],
      "name": "removeTellerModerator",
      "outputs": [],
      "payable": false,
      "stateMutability": "nonpayable",
      "type": "function"
    },
    {
      "constant": false,
      "inputs": [
        {
          "name": "_country",
          "type": "bytes2"
        }
      ],
      "name": "closeZoneShop",
      "outputs": [],
      "payable": false,
      "stateMutability": "nonpayable",
      "type": "function"
    },
    {
      "constant": true,
      "inputs": [
        {
          "name": "",
          "type": "address"
        }
      ],
      "name": "tellerModerators",
      "outputs": [
        {
          "name": "",
          "type": "bool"
        }
      ],
      "payable": false,
      "stateMutability": "view",
      "type": "function"
    },
    {
      "constant": true,
      "inputs": [
        {
          "name": "",
          "type": "bytes2"
        }
      ],
      "name": "openedCountryTeller",
      "outputs": [
        {
          "name": "",
          "type": "bool"
        }
      ],
      "payable": false,
      "stateMutability": "view",
      "type": "function"
    },
    {
      "constant": false,
      "inputs": [
        {
          "name": "_moderator",
          "type": "address"
        }
      ],
      "name": "setTellerModerator",
      "outputs": [],
      "payable": false,
      "stateMutability": "nonpayable",
      "type": "function"
    },
    {
      "constant": true,
      "inputs": [],
      "name": "run2",
      "outputs": [
        {
          "name": "",
          "type": "bool"
        }
      ],
      "payable": false,
      "stateMutability": "view",
      "type": "function"
    },
    {
      "constant": false,
      "inputs": [
        {
          "name": "_kycCertifier",
          "type": "address"
        }
      ],
      "name": "setKycCertifier",
      "outputs": [],
      "payable": false,
      "stateMutability": "nonpayable",
      "type": "function"
    },
    {
      "constant": false,
      "inputs": [
        {
          "name": "country",
          "type": "bytes2"
        },
        {
          "name": "price",
          "type": "uint256"
        }
      ],
      "name": "setLicenceTellerPrice",
      "outputs": [],
      "payable": false,
      "stateMutability": "nonpayable",
      "type": "function"
    },
    {
      "constant": true,
      "inputs": [
        {
          "name": "",
          "type": "bytes2"
        }
      ],
      "name": "licenceTeller",
      "outputs": [
        {
          "name": "",
          "type": "uint256"
        }
      ],
      "payable": false,
      "stateMutability": "view",
      "type": "function"
    },
    {
      "constant": true,
      "inputs": [],
      "name": "run1",
      "outputs": [
        {
          "name": "",
          "type": "bool"
        }
      ],
      "payable": false,
      "stateMutability": "view",
      "type": "function"
    },
    {
      "constant": false,
      "inputs": [
        {
          "name": "_smsCertifier",
          "type": "address"
        }
      ],
      "name": "setSmsCertifier",
      "outputs": [],
      "payable": false,
      "stateMutability": "nonpayable",
      "type": "function"
    },
    {
      "inputs": [],
      "payable": false,
      "stateMutability": "nonpayable",
      "type": "constructor"
    },
    {
      "anonymous": false,
      "inputs": [
        {
          "indexed": true,
          "name": "tellerAddress",
          "type": "address"
        }
      ],
      "name": "RegisterTeller",
      "type": "event"
    },
    {
      "anonymous": false,
      "inputs": [
        {
          "indexed": true,
          "name": "tellerAddress",
          "type": "address"
        },
        {
          "indexed": false,
          "name": "amount",
          "type": "uint256"
        }
      ],
      "name": "AddFunds",
      "type": "event"
    },
    {
      "anonymous": false,
      "inputs": [
        {
          "indexed": true,
          "name": "tellerAddress",
          "type": "address"
        }
      ],
      "name": "DeleteTeller",
      "type": "event"
    },
    {
      "anonymous": false,
      "inputs": [
        {
          "indexed": true,
          "name": "tellerAddress",
          "type": "address"
        }
      ],
      "name": "UpdateTeller",
      "type": "event"
    },
    {
      "anonymous": false,
      "inputs": [
        {
          "indexed": true,
          "name": "_from",
          "type": "address"
        },
        {
          "indexed": true,
          "name": "_to",
          "type": "address"
        },
        {
          "indexed": false,
          "name": "amount",
          "type": "uint256"
        }
      ],
      "name": "Sent",
      "type": "event"
    },
    {
      "anonymous": false,
      "inputs": [
        {
          "indexed": false,
          "name": "shopAddress",
          "type": "address"
        }
      ],
      "name": "RegisterShop",
      "type": "event"
    },
    {
      "anonymous": false,
      "inputs": [
        {
          "indexed": false,
          "name": "shopAddress",
          "type": "address"
        }
      ],
      "name": "DeleteShop",
      "type": "event"
    },
    {
      "anonymous": false,
      "inputs": [
        {
          "indexed": true,
          "name": "moderator",
          "type": "address"
        },
        {
          "indexed": false,
          "name": "shopAddress",
          "type": "address"
        }
      ],
      "name": "DeleteShopModerator",
      "type": "event"
    },
    {
      "anonymous": false,
      "inputs": [
        {
          "indexed": true,
          "name": "moderator",
          "type": "address"
        },
        {
          "indexed": false,
          "name": "tellerAddress",
          "type": "address"
        }
      ],
      "name": "DeleteTellerModerator",
      "type": "event"
    },
    {
      "anonymous": false,
      "inputs": [
        {
          "indexed": false,
          "name": "newContract",
          "type": "address"
        }
      ],
      "name": "ContractUpgrade",
      "type": "event"
    },
    {
      "constant": false,
      "inputs": [
        {
          "name": "_dth",
          "type": "address"
        },
        {
          "name": "_bank",
          "type": "address"
        }
      ],
      "name": "initContract",
      "outputs": [],
      "payable": false,
      "stateMutability": "nonpayable",
      "type": "function"
    },
    {
      "constant": false,
      "inputs": [
        {
          "name": "_priceOracle",
          "type": "address"
        }
      ],
      "name": "setPriceOracle",
      "outputs": [],
      "payable": false,
      "stateMutability": "nonpayable",
      "type": "function"
    },
    {
      "constant": false,
      "inputs": [
        {
          "name": "_from",
          "type": "address"
        },
        {
          "name": "_value",
          "type": "uint256"
        },
        {
          "name": "_data",
          "type": "bytes"
        }
      ],
      "name": "tokenFallback",
      "outputs": [],
      "payable": false,
      "stateMutability": "nonpayable",
      "type": "function"
    },
    {
      "constant": false,
      "inputs": [
        {
          "name": "currencyId",
          "type": "int8"
        },
        {
          "name": "messenger",
          "type": "bytes16"
        },
        {
          "name": "avatarId",
          "type": "int8"
        },
        {
          "name": "rates",
          "type": "int16"
        },
        {
          "name": "online",
          "type": "bool"
        }
      ],
      "name": "updateTeller",
      "outputs": [],
      "payable": true,
      "stateMutability": "payable",
      "type": "function"
    },
    {
      "constant": false,
      "inputs": [
        {
          "name": "_tier",
          "type": "uint256"
        },
        {
          "name": "_countryId",
          "type": "bytes2"
        },
        {
          "name": "_limitUsd",
          "type": "uint256"
        }
      ],
      "name": "setSellDailyLimit",
      "outputs": [],
      "payable": false,
      "stateMutability": "nonpayable",
      "type": "function"
    },
    {
      "constant": true,
      "inputs": [
        {
          "name": "_tier",
          "type": "uint256"
        },
        {
          "name": "_countryId",
          "type": "bytes2"
        }
      ],
      "name": "getSellDailyLimit",
      "outputs": [
        {
          "name": "limitUsd",
          "type": "uint256"
        }
      ],
      "payable": false,
      "stateMutability": "view",
      "type": "function"
    },
    {
      "constant": true,
      "inputs": [
        {
          "name": "_from",
          "type": "address"
        },
        {
          "name": "_to",
          "type": "address"
        }
      ],
      "name": "getPairSellLoyaltyPerc",
      "outputs": [
        {
          "name": "",
          "type": "uint256"
        }
      ],
      "payable": false,
      "stateMutability": "view",
      "type": "function"
    },
    {
      "constant": true,
      "inputs": [
        {
          "name": "who",
          "type": "address"
        }
      ],
      "name": "getLoyaltyPoints",
      "outputs": [
        {
          "name": "",
          "type": "uint256"
        }
      ],
      "payable": false,
      "stateMutability": "view",
      "type": "function"
    },
    {
      "constant": false,
      "inputs": [
        {
          "name": "_to",
          "type": "address"
        },
        {
          "name": "_amount",
          "type": "uint256"
        }
      ],
      "name": "sellEth",
      "outputs": [],
      "payable": false,
      "stateMutability": "nonpayable",
      "type": "function"
    },
    {
      "constant": false,
      "inputs": [
        {
          "name": "_status",
          "type": "bool"
        }
      ],
      "name": "switchStatus",
      "outputs": [],
      "payable": false,
      "stateMutability": "nonpayable",
      "type": "function"
    },
    {
      "constant": false,
      "inputs": [],
      "name": "addFunds",
      "outputs": [],
      "payable": true,
      "stateMutability": "payable",
      "type": "function"
    },
    {
      "constant": false,
      "inputs": [],
      "name": "deleteTeller",
      "outputs": [],
      "payable": false,
      "stateMutability": "nonpayable",
      "type": "function"
    },
    {
      "constant": false,
      "inputs": [
        {
          "name": "_toDelete",
          "type": "address"
        }
      ],
      "name": "deleteTellerMods",
      "outputs": [],
      "payable": false,
      "stateMutability": "nonpayable",
      "type": "function"
    },
    {
      "constant": false,
      "inputs": [],
      "name": "deleteShop",
      "outputs": [],
      "payable": false,
      "stateMutability": "nonpayable",
      "type": "function"
    },
    {
      "constant": false,
      "inputs": [
        {
          "name": "_toDelete",
          "type": "address"
        }
      ],
      "name": "deleteShopMods",
      "outputs": [],
      "payable": false,
      "stateMutability": "nonpayable",
      "type": "function"
    },
    {
      "constant": true,
      "inputs": [
        {
          "name": "_teller",
          "type": "address"
        }
      ],
      "name": "getTeller",
      "outputs": [
        {
          "name": "lat",
          "type": "int32"
        },
        {
          "name": "lng",
          "type": "int32"
        },
        {
          "name": "countryId",
          "type": "bytes2"
        },
        {
          "name": "postalCode",
          "type": "bytes16"
        },
        {
          "name": "currencyId",
          "type": "int8"
        },
        {
          "name": "messenger",
          "type": "bytes16"
        },
        {
          "name": "avatarId",
          "type": "int8"
        },
        {
          "name": "rates",
          "type": "int16"
        },
        {
          "name": "balance",
          "type": "uint256"
        },
        {
          "name": "online",
          "type": "bool"
        },
        {
          "name": "buyer",
          "type": "bool"
        },
        {
          "name": "buyRates",
          "type": "int16"
        }
      ],
      "payable": false,
      "stateMutability": "view",
      "type": "function"
    },
    {
      "constant": true,
      "inputs": [
        {
          "name": "_shop",
          "type": "address"
        }
      ],
      "name": "getShop",
      "outputs": [
        {
          "name": "lat",
          "type": "int32"
        },
        {
          "name": "lng",
          "type": "int32"
        },
        {
          "name": "countryId",
          "type": "bytes2"
        },
        {
          "name": "postalCode",
          "type": "bytes16"
        },
        {
          "name": "cat",
          "type": "bytes16"
        },
        {
          "name": "name",
          "type": "bytes16"
        },
        {
          "name": "description",
          "type": "bytes32"
        },
        {
          "name": "opening",
          "type": "bytes16"
        }
      ],
      "payable": false,
      "stateMutability": "view",
      "type": "function"
    },
    {
      "constant": true,
      "inputs": [
        {
          "name": "_teller",
          "type": "address"
        }
      ],
      "name": "getReput",
      "outputs": [
        {
          "name": "buyVolume",
          "type": "uint256"
        },
        {
          "name": "sellVolume",
          "type": "uint256"
        },
        {
          "name": "numTrade",
          "type": "uint256"
        },
        {
          "name": "loyaltyPoints_",
          "type": "uint256"
        }
      ],
      "payable": false,
      "stateMutability": "view",
      "type": "function"
    },
    {
      "constant": true,
      "inputs": [
        {
          "name": "_teller",
          "type": "address"
        }
      ],
      "name": "getTellerBalance",
      "outputs": [
        {
          "name": "",
          "type": "uint256"
        }
      ],
      "payable": false,
      "stateMutability": "view",
      "type": "function"
    },
    {
      "constant": true,
      "inputs": [
        {
          "name": "_country",
          "type": "bytes2"
        },
        {
          "name": "_postalcode",
          "type": "bytes16"
        }
      ],
      "name": "getZoneShop",
      "outputs": [
        {
          "name": "",
          "type": "address[]"
        }
      ],
      "payable": false,
      "stateMutability": "view",
      "type": "function"
    },
    {
      "constant": true,
      "inputs": [],
      "name": "getAllShops",
      "outputs": [
        {
          "name": "",
          "type": "address[]"
        }
      ],
      "payable": false,
      "stateMutability": "view",
      "type": "function"
    },
    {
      "constant": true,
      "inputs": [
        {
          "name": "_shop",
          "type": "address"
        }
      ],
      "name": "isShop",
      "outputs": [
        {
          "name": "",
          "type": "bool"
        }
      ],
      "payable": false,
      "stateMutability": "view",
      "type": "function"
    },
    {
      "constant": true,
      "inputs": [
        {
          "name": "_country",
          "type": "bytes2"
        },
        {
          "name": "_postalcode",
          "type": "bytes16"
        }
      ],
      "name": "getZoneTeller",
      "outputs": [
        {
          "name": "",
          "type": "address[]"
        }
      ],
      "payable": false,
      "stateMutability": "view",
      "type": "function"
    },
    {
      "constant": true,
      "inputs": [],
      "name": "getAllTellers",
      "outputs": [
        {
          "name": "",
          "type": "address[]"
        }
      ],
      "payable": false,
      "stateMutability": "view",
      "type": "function"
    },
    {
      "constant": true,
      "inputs": [
        {
          "name": "_teller",
          "type": "address"
        }
      ],
      "name": "isTeller",
      "outputs": [
        {
          "name": "",
          "type": "bool"
        }
      ],
      "payable": false,
      "stateMutability": "view",
      "type": "function"
    },
    {
      "constant": true,
      "inputs": [
        {
          "name": "_shop",
          "type": "address"
        }
      ],
      "name": "getStakedShop",
      "outputs": [
        {
          "name": "",
          "type": "uint256"
        }
      ],
      "payable": false,
      "stateMutability": "view",
      "type": "function"
    },
    {
      "constant": true,
      "inputs": [
        {
          "name": "_teller",
          "type": "address"
        }
      ],
      "name": "getStakedTeller",
      "outputs": [
        {
          "name": "",
          "type": "uint256"
        }
      ],
      "payable": false,
      "stateMutability": "view",
      "type": "function"
    },
    {
      "constant": false,
      "inputs": [
        {
          "name": "_newbankowner",
          "type": "address"
        }
      ],
      "name": "transferBankOwnership",
      "outputs": [],
      "payable": false,
      "stateMutability": "nonpayable",
      "type": "function"
    }
  ],
  "bytecode": "0x60806040526006805462ffffff191690556017805460ff1916905534801561002657600080fd5b5060008054600160a060020a031916331790556147ae806100486000396000f3006080604052600436106103085763ffffffff60e060020a60003504166301e57a37811461030d5780630519ce791461033e5780630a0f8168146103535780630d46f91a146103685780630d926f7a1461037d5780630e479dc7146103b157806319f1cded146104325780631d0e8a4d146104535780631d32f106146104885780632072863b146104ac5780632105c049146104cd5780632272b0af146104ee5780632314a5c81461050357806325ba0f511461054a5780632630c12f1461057157806327d7874c146105865780632e3a4def146105a757806330a55316146105c85780633b23a5ca146105dd5780633f4ba83a146105f75780633fa198041461060c57806343579fe81461063b5780634a9f0110146106505780634b0ad8fa146106785780634e0a3379146106995780634f4cd650146106ba578063529e65e11461071f578063530e784f1461074057806359b17b43146107615780635c975abb1461078257806366d5eb9b1461079757806367bb15ad146107b9578063681e3356146107da578063744955a9146107fb57806376cdb03b1461081d57806378843a9514610832578063809ffb20146108535780638456cb59146108745780638620084214610889578063878127c8146108ae5780638bd1b610146108c65780638c267b97146108db57806395d43eea146108f05780639a8061e8146109085780639ae120dd1461092d578063a26759cb1461094f578063aa5a11c514610957578063b0547d8c14610978578063b5c4147f14610999578063ba2a98f2146109c8578063c0ee0b8a146109ea578063c640ee3d14610a53578063ca34333b14610a74578063d04c911514610a96578063d0a4a81b14610ab7578063d4f639ea14610ad8578063d5c9b23914610aed578063dd955c4414610b02578063e019ac2914610b26578063f002467714610b47578063f2d15c4814610b68578063f3943ca914610b8d578063f554567f14610baf578063f983c0fa14610c65578063fa1d9cf814610c7a578063fac8a80014610ca9578063fcf3438c14610cca578063fdff31ed14610ceb575b600080fd5b34801561031957600080fd5b50610322610d12565b60408051600160a060020a039092168252519081900360200190f35b34801561034a57600080fd5b50610322610d21565b34801561035f57600080fd5b50610322610d30565b34801561037457600080fd5b50610322610d3f565b34801561038957600080fd5b5061039f600160f060020a031960043516610d4e565b60408051918252519081900360200190f35b3480156103bd57600080fd5b506103d2600160a060020a0360043516610d60565b604080516003998a0b8a0b815297890b90980b6020880152600160f060020a0319909516868801526001608060020a031993841660608701529183166080860152821660a085015260c08401521660e08201529051908190036101000190f35b34801561043e57600080fd5b5061039f600160a060020a0360043516610dc9565b34801561045f57600080fd5b50610474600160a060020a0360043516610e66565b604080519115158252519081900360200190f35b34801561049457600080fd5b506104aa600160f060020a031960043516610e9d565b005b3480156104b857600080fd5b506104aa600160a060020a0360043516610ed9565b3480156104d957600080fd5b506104aa600160a060020a0360043516610f27565b3480156104fa57600080fd5b50610322610f75565b34801561050f57600080fd5b50610524600160a060020a0360043516610f84565b604080519485526020850193909352838301919091526060830152519081900360800190f35b34801561055657600080fd5b506104aa600160a060020a0360043581169060243516610fc0565b34801561057d57600080fd5b50610322611022565b34801561059257600080fd5b506104aa600160a060020a0360043516611031565b3480156105b357600080fd5b50610474600160a060020a036004351661107f565b3480156105d457600080fd5b506103226110d4565b3480156105e957600080fd5b506104aa60043515156110ea565b34801561060357600080fd5b506104aa61112c565b6104aa600435600090810b906001608060020a03196024351690604435900b60643560010b6084351515611160565b34801561064757600080fd5b506104aa611436565b34801561065c57600080fd5b506104aa600435600160f060020a031960243516604435611788565b34801561068457600080fd5b5061039f600160a060020a03600435166117c6565b3480156106a557600080fd5b506104aa600160a060020a0360043516611831565b3480156106c657600080fd5b506106cf61187f565b60408051602080825283518183015283519192839290830191858101910280838360005b8381101561070b5781810151838201526020016106f3565b505050509050019250505060405180910390f35b34801561072b57600080fd5b506104aa600160a060020a03600435166118e2565b34801561074c57600080fd5b506104aa600160a060020a036004351661191a565b34801561076d57600080fd5b5061039f600160a060020a0360043516611953565b34801561078e57600080fd5b506104746119be565b3480156107a357600080fd5b506104aa600160f060020a0319600435166119c7565b3480156107c557600080fd5b50610474600160a060020a0360043516611a03565b3480156107e657600080fd5b506104aa600160a060020a0360043516611a18565b34801561080757600080fd5b50610474600160f060020a031960043516611ac2565b34801561082957600080fd5b50610322611ad7565b34801561083e57600080fd5b50610474600160a060020a0360043516611ae6565b34801561085f57600080fd5b506104aa600160a060020a0360043516611b41565b34801561088057600080fd5b506104aa611b91565b34801561089557600080fd5b5061039f600435600160f060020a031960243516611bc7565b3480156108ba57600080fd5b50610322600435611bef565b3480156108d257600080fd5b506104aa611c17565b3480156108e757600080fd5b50610322611fde565b3480156108fc57600080fd5b50610322600435611fed565b34801561091457600080fd5b506104aa600160f060020a031960043516602435611ffb565b34801561093957600080fd5b506104aa600160f060020a03196004351661202f565b6104aa612068565b34801561096357600080fd5b506104aa600160a060020a036004351661215a565b34801561098457600080fd5b506104aa600160a060020a0360043516612192565b3480156109a557600080fd5b506106cf600160f060020a0319600435166001608060020a0319602435166125cf565b3480156109d457600080fd5b506104aa600160f060020a031960043516612659565b3480156109f657600080fd5b50604080516020600460443581810135601f81018490048402850184019095528484526104aa948235600160a060020a03169460248035953695946064949201919081908401838280828437509497506126929650505050505050565b348015610a5f57600080fd5b50610474600160a060020a0360043516613917565b348015610a8057600080fd5b50610474600160f060020a03196004351661392c565b348015610aa257600080fd5b5061039f600160a060020a0360043516613941565b348015610ac357600080fd5b506104aa600160a060020a036004351661395c565b348015610ae457600080fd5b506104746139ac565b348015610af957600080fd5b506106cf6139bb565b348015610b0e57600080fd5b506104aa600160a060020a0360043516602435613a1b565b348015610b3257600080fd5b506104aa600160a060020a0360043516613ebe565b348015610b5357600080fd5b506104aa600160a060020a0360043516613f1f565b348015610b7457600080fd5b506104aa600160f060020a031960043516602435614338565b348015610b9957600080fd5b5061039f600160f060020a03196004351661436c565b348015610bbb57600080fd5b50610bd0600160a060020a036004351661437e565b6040805160039d8e0b8e0b81529b8d0b909c0b60208c0152600160f060020a03199099168a8c01526001608060020a031997881660608b0152600096870b870b60808b01529490961660a089015291840b90930b60c0870152600192830b830b60e087015261010086015291151561012085015290151561014084015290810b900b6101608201529051908190036101800190f35b348015610c7157600080fd5b506104746144e4565b348015610c8657600080fd5b506106cf600160f060020a0319600435166001608060020a0319602435166144f2565b348015610cb557600080fd5b50610474600160a060020a036004351661457a565b348015610cd657600080fd5b506104aa600160a060020a03600435166145b1565b348015610cf757600080fd5b5061039f600160a060020a036004358116906024351661461f565b600c54600160a060020a031681565b600354600160a060020a031681565b600054600160a060020a031681565b600754600160a060020a031681565b600a6020526000908152604090205481565b600160a060020a0316600090815260186020526040902080546001820154600283015460039384015483850b95640100000000850490950b9460f060020a604060020a86040294608060020a605060020a90910481029480820294908290048202939092910290565b600d54604080517f78d0a415000000000000000000000000000000000000000000000000000000008152600160a060020a038481166004830152915160009392909216916378d0a4159160248082019260209290919082900301818787803b158015610e3457600080fd5b505af1158015610e48573d6000803e3d6000fd5b505050506040513d6020811015610e5e57600080fd5b505192915050565b600160a060020a038116600090815260186020526040902054604060020a900460f060020a02600160f060020a0319161515919050565b600154600160a060020a03163314610eb457600080fd5b600160f060020a0319166000908152600960205260409020805460ff19166001179055565b600054600160a060020a03163314610ef057600080fd5b600160a060020a0381161515610f0557600080fd5b60018054600160a060020a031916600160a060020a0392909216919091179055565b600054600160a060020a03163314610f3e57600080fd5b600160a060020a0381161515610f5357600080fd5b60028054600160a060020a031916600160a060020a0392909216919091179055565b600254600160a060020a031681565b600160a060020a031660009081526010602090815260408083205460118352818420546012845282852054601390945291909320549293909290565b600054600160a060020a03163314610fd757600080fd5b60175460ff1615610fe757600080fd5b600c8054600160a060020a03938416600160a060020a031991821617909155600d80549290931691161790556017805460ff19166001179055565b600e54600160a060020a031681565b600054600160a060020a0316331461104857600080fd5b600160a060020a038116151561105d57600080fd5b60008054600160a060020a031916600160a060020a0392909216919091179055565b6007546040805160e160020a63660ea601028152600160a060020a0384811660048301529151600093929092169163cc1d4c029160248082019260209290919082900301818787803b158015610e3457600080fd5b60065463010000009004600160a060020a031681565b3360009081526014602052604090206004015460ff1615158115151461112957336000908152601460205260409020600401805460ff19168215151790555b50565b600054600160a060020a0316331461114357600080fd5b60065460ff16151561115457600080fd5b6006805460ff19169055565b6111693361457a565b151561117457600080fd5b3360009081526014602052604081205460d060020a9004810b810b9086900b146111dd5733600090815260146020526040812080549187900b60ff1660d060020a027aff0000000000000000000000000000000000000000000000000000199092169190911790555b33600090815260146020526040902060010154608060020a026001608060020a0319908116908516146112335733600090815260146020526040902060010180546001608060020a031916608060020a86041790555b33600090815260146020526040812060010154608060020a9004810b810b9084900b146112985733600090815260146020526040812060010180549185900b60ff16608060020a0270ff00000000000000000000000000000000199092169190911790555b336000908152601460205260409020600190810154710100000000000000000000000000000000009004810b810b9083900b1461132057336000908152601460205260409020600190810180549184900b61ffff16710100000000000000000000000000000000000272ffff0000000000000000000000000000000000199092169190911790555b3360009081526014602052604090206004015460ff1615158115151461135f57336000908152601460205260409020600401805460ff19168215151790555b600034111561140457600d54604080517fe465146500000000000000000000000000000000000000000000000000000000815233600482015234602482018190529151600160a060020a039093169263e4651465929160448082019260209290919082900301818588803b1580156113d657600080fd5b505af11580156113ea573d6000803e3d6000fd5b50505050506040513d602081101561140157600080fd5b50505b60405133907fe3df84c3ca6a90f0e6485beae08e7bd034695356bec32910a3d62559ff33fbc890600090a25050505050565b60008060008061144533610e66565b151561145057600080fd5b33600090815260186020908152604080832060048101549054604060020a810460f060020a02600160f060020a031916855260198452828520605060020a909104608060020a026001608060020a031916855290925290912080549195509060001981019081106114bd57fe5b60009182526020808320919091015433835260188252604080842054604060020a810460f060020a02600160f060020a031916855260198452818520605060020a909104608060020a026001608060020a031916855290925291208054600160a060020a03909216945084918690811061153357fe5b60009182526020808320919091018054600160a060020a031916600160a060020a03948516179055918516815260188252604080822060040187905533825280822054604060020a810460f060020a02600160f060020a031916835260198452818320605060020a909104608060020a026001608060020a0319168352909252208054906115c590600019830161473b565b5033600090815260186020526040902060050154601a80549193509060001981019081106115ef57fe5b600091825260209091200154601a8054600160a060020a03909216925082918490811061161857fe5b60009182526020808320919091018054600160a060020a031916600160a060020a039485161790559183168152601890915260409020600501829055601a80549061166790600019830161473b565b5033600081815260186020526040808220805479ffffffffffffffffffffffffffffffffffffffffffffffffffff1916815560018101839055600281018390556003810180546001608060020a03191690556004808201849055600582018490556006909101805460ff19169055600d5482517f3716f65d000000000000000000000000000000000000000000000000000000008152918201949094529051600160a060020a0390931692633716f65d9260248084019391929182900301818387803b15801561173657600080fd5b505af115801561174a573d6000803e3d6000fd5b50506040805133815290517fe607eb1578eec3de556aa2d57f7ff9365c1706069a8959e794883eba60b043e39350908190036020019150a150505050565b600354600160a060020a0316331461179f57600080fd5b6000928352601b60209081526040808520600160f060020a03199094168552929052912055565b600d54604080517fa96b3ab8000000000000000000000000000000000000000000000000000000008152600160a060020a0384811660048301529151600093929092169163a96b3ab89160248082019260209290919082900301818787803b158015610e3457600080fd5b600054600160a060020a0316331461184857600080fd5b600160a060020a038116151561185d57600080fd5b60038054600160a060020a031916600160a060020a0392909216919091179055565b606060168054806020026020016040519081016040528092919081815260200182805480156118d757602002820191906000526020600020905b8154600160a060020a031681526001909101906020018083116118b9575b505050505090505b90565b600054600160a060020a031633146118f957600080fd5b600160a060020a03166000908152600460205260409020805460ff19169055565b600354600160a060020a0316331461193157600080fd5b600e8054600160a060020a031916600160a060020a0392909216919091179055565b600d54604080517f8d837f38000000000000000000000000000000000000000000000000000000008152600160a060020a03848116600483015291516000939290921691638d837f389160248082019260209290919082900301818787803b158015610e3457600080fd5b60065460ff1681565b600154600160a060020a031633146119de57600080fd5b600160f060020a0319166000908152600860205260409020805460ff19166001179055565b60046020526000908152604090205460ff1681565b600054600160a060020a03163314611a2f57600080fd5b60065460ff161515611a4057600080fd5b600d54604080517ff2fde38b000000000000000000000000000000000000000000000000000000008152600160a060020a0384811660048301529151919092169163f2fde38b91602480830192600092919082900301818387803b158015611aa757600080fd5b505af1158015611abb573d6000803e3d6000fd5b5050505050565b60086020526000908152604090205460ff1681565b600d54600160a060020a031681565b6006546040805160e160020a63660ea601028152600160a060020a0384811660048301529151600093630100000090049092169163cc1d4c029160248082019260209290919082900301818787803b158015610e3457600080fd5b600054600160a060020a03163314611b5857600080fd5b600160a060020a0381161515611b6d57600080fd5b600160a060020a03166000908152600460205260409020805460ff19166001179055565b600054600160a060020a03163314611ba857600080fd5b60065460ff1615611bb857600080fd5b6006805460ff19166001179055565b6000918252601b60209081526040808420600160f060020a0319909316845291905290205490565b601a805482908110611bfd57fe5b600091825260209091200154600160a060020a0316905081565b600080600080611c263361457a565b1515611c3157600080fd5b33600090815260146020908152604080832060028101549054604060020a810460f060020a02600160f060020a031916855260158452828520605060020a909104608060020a026001608060020a03191685529092529091208054919550906000198101908110611c9e57fe5b60009182526020808320919091015433835260148252604080842054604060020a810460f060020a02600160f060020a031916855260158452818520605060020a909104608060020a026001608060020a031916855290925291208054600160a060020a039092169450849186908110611d1457fe5b60009182526020808320919091018054600160a060020a031916600160a060020a03948516179055918516815260148252604080822060020187905533825280822054604060020a810460f060020a02600160f060020a031916835260158452818320605060020a909104608060020a026001608060020a031916835290925220805490611da690600019830161473b565b503360009081526014602052604090206003015460168054919350906000198101908110611dd057fe5b60009182526020909120015460168054600160a060020a039092169250829184908110611df957fe5b60009182526020808320919091018054600160a060020a031916600160a060020a0394851617905591831681526014909152604090206003018290556016805490611e4890600019830161473b565b503360008181526014602052604080822080547affffffffffffffffffffffffffffffffffffffffffffffffffffff1916815560018101805475ffffffffffffffffffffffffffffffffffffffffffff1916905560028101839055600381018390556004908101805460ff19169055600d5482517fb71738f1000000000000000000000000000000000000000000000000000000008152918201949094529051600160a060020a039093169263b71738f19260248084019391929182900301818387803b158015611f1857600080fd5b505af1158015611f2c573d6000803e3d6000fd5b5050600d54604080517fd83edd700000000000000000000000000000000000000000000000000000000081523360048201529051600160a060020a03909216935063d83edd70925060248082019260009290919082900301818387803b158015611f9557600080fd5b505af1158015611fa9573d6000803e3d6000fd5b50506040513392507fb1e40dcb43d26b3a6cb20da12c333af5a0de0bcd6264eddca5fbacf3e31d4f949150600090a250505050565b600154600160a060020a031681565b6016805482908110611bfd57fe5b600154600160a060020a0316331461201257600080fd5b600160f060020a03199091166000908152600a6020526040902055565b600154600160a060020a0316331461204657600080fd5b600160f060020a0319166000908152600960205260409020805460ff19169055565b6120713361457a565b151561207c57600080fd5b600d54604080517fe465146500000000000000000000000000000000000000000000000000000000815233600482015234602482018190529151600160a060020a039093169263e4651465929160448082019260209290919082900301818588803b1580156120ea57600080fd5b505af11580156120fe573d6000803e3d6000fd5b50505050506040513d602081101561211557600080fd5b5051151561212257600080fd5b60408051348152905133917ff424eeb50f7d240513b6dc4a39048768557d8465bdc7d2dd363ecc538006c2be919081900360200190a2565b600054600160a060020a0316331461217157600080fd5b600160a060020a03166000908152600560205260409020805460ff19169055565b33600081815260046020526040812054909182918291829160ff1615156121b857600080fd5b600160a060020a038616600090815260186020908152604080832060048101549054604060020a810460f060020a02600160f060020a031916855260198452828520605060020a909104608060020a026001608060020a0319168552909252909120805491965090600019810190811061222e57fe5b600091825260208083209190910154600160a060020a03898116845260188352604080852054604060020a810460f060020a02600160f060020a031916865260198552818620605060020a909104608060020a026001608060020a0319168652909352919092208054919092169550859190879081106122aa57fe5b60009182526020808320919091018054600160a060020a031916600160a060020a039485161790558683168252601881526040808320600401899055928916825282822054604060020a810460f060020a02600160f060020a031916835260198252838320605060020a909104608060020a026001608060020a031916835290522080549061233d90600019830161473b565b50600160a060020a038616600090815260186020526040902060050154601a805491945090600019810190811061237057fe5b600091825260209091200154601a8054600160a060020a03909216935083918590811061239957fe5b60009182526020808320919091018054600160a060020a031916600160a060020a039485161790559184168152601890915260409020600501839055601a8054906123e890600019830161473b565b50600160a060020a03861660009081526018602052604090206006015460ff16151561249257600d54604080517f3716f65d000000000000000000000000000000000000000000000000000000008152600160a060020a03898116600483015291519190921691633716f65d91602480830192600092919082900301818387803b15801561247557600080fd5b505af1158015612489573d6000803e3d6000fd5b5050505061251d565b600d54600254604080517f7139b595000000000000000000000000000000000000000000000000000000008152600160a060020a038a81166004830152928316602482015290519190921691637139b59591604480830192600092919082900301818387803b15801561250457600080fd5b505af1158015612518573d6000803e3d6000fd5b505050505b600160a060020a0386166000818152601860209081526040808320805479ffffffffffffffffffffffffffffffffffffffffffffffffffff1916815560018101849055600281018490556003810180546001608060020a03191690556004810184905560058101939093556006909201805460ff191690558151928352905133927f34fe9e989d541054eb508f79a2e9b0bc3aa3d7ff2f2ded4f1f6b2819aaec86a392908290030190a2505050505050565b600160f060020a0319821660009081526019602090815260408083206001608060020a03198516845282529182902080548351818402810184019094528084526060939283018282801561264c57602002820191906000526020600020905b8154600160a060020a0316815260019091019060200180831161262e575b5050505050905092915050565b600154600160a060020a0316331461267057600080fd5b600160f060020a0319166000908152600860205260409020805460ff19169055565b60065460009081908190819060ff16156126ab57600080fd5b6006546040805160e160020a63660ea601028152600160a060020a038a8116600483015291518a93630100000090049092169163cc1d4c02916024808201926020929091908290030181600087803b15801561270657600080fd5b505af115801561271a573d6000803e3d6000fd5b505050506040513d602081101561273057600080fd5b5051151561273d57600080fd5b600c54600160a060020a0316331461275457600080fd5b61276586600063ffffffff61464a16565b945060f860020a61277d87600163ffffffff61464a16565b600160f860020a031916146127a95761279d86600263ffffffff61467216565b60e060020a90046127c6565b6127ba86600263ffffffff61467216565b60e060020a9004600019025b935060f860020a6127de87600663ffffffff61464a16565b600160f860020a0319161461280a576127fe86600763ffffffff61467216565b60e060020a9004612827565b61281b86600763ffffffff61467216565b60e060020a9004600019025b9250600160f860020a031985167f31000000000000000000000000000000000000000000000000000000000000001415612d8757600a600061287088600b63ffffffff61468816565b600160f060020a031916815260208101919091526040016000205487101561289757600080fd5b6128a088610e66565b156128aa57600080fd5b600860006128bf88600b63ffffffff61468816565b600160f060020a031916815260208101919091526040016000205460ff1615156128e857600080fd5b600160a060020a0388166000908152601860205260409020805463ffffffff1916600386810b63ffffffff9081169290921767ffffffff0000000019166401000000009187900b83169190910217909155612948908790600b9061468816565b600160a060020a0389166000908152601860205260409020805460f060020a909204604060020a0269ffff00000000000000001990921691909117905561299686600d63ffffffff61469e16565b600160a060020a03891660009081526018602052604090208054608060020a909204605060020a0279ffffffffffffffffffffffffffffffff00000000000000000000199092169190911790556129f486601d63ffffffff61469e16565b600160a060020a038916600090815260186020526040902060010180546001608060020a031916608060020a909204919091179055612a3486602d61469e565b600160a060020a038916600090815260186020526040902060010180546fffffffffffffffffffffffffffffffff16608060020a92839004909202919091179055612a8086603d6146b4565b600160a060020a038916600090815260186020526040902060020155612aad86605d63ffffffff61469e16565b600160a060020a03891660008181526018602052604081206003810180546001608060020a031916608060020a90950494909417909355601a805460018181019092557f057c384a7d1c54f3a1b2e5e67b2617b8224fdfd1ea7234eea573a6ff665ff63e81018054600160a060020a031916909417909355600590930191909155601990612b3c89600b614688565b600160f060020a03191681526020810191909152604001600090812090612b6a89600d63ffffffff61469e16565b6fffffffffffffffffffffffffffffffff19166fffffffffffffffffffffffffffffffff191681526020019081526020016000208990806001815401808255809150509060018203906000526020600020016000909192909190916101000a815481600160a060020a030219169083600160a060020a0316021790555003601860008a600160a060020a0316600160a060020a03168152602001908152602001600020600401819055507ff45ad76a8c4c14053708bfd052607c5e35446beb04fbdff6f2f3c9dde8e83b37886040518082600160a060020a0316600160a060020a0316815260200191505060405180910390a1600d54604080517fd4d84da5000000000000000000000000000000000000000000000000000000008152600160a060020a038b81166004830152602482018b90529151919092169163d4d84da591604480830192600092919082900301818387803b158015612ccb57600080fd5b505af1158015612cdf573d6000803e3d6000fd5b5050600c54600d54604080517fa9059cbb000000000000000000000000000000000000000000000000000000008152600160a060020a039283166004820152602481018d9052905191909216935063a9059cbb925060448083019260209291908290030181600087803b158015612d5557600080fd5b505af1158015612d69573d6000803e3d6000fd5b505050506040513d6020811015612d7f57600080fd5b5061390d9050565b600160f860020a031985167f320000000000000000000000000000000000000000000000000000000000000014156133c757600b6000612dcd888363ffffffff61468816565b600160f060020a0319168152602081019190915260400160002054871015612df457600080fd5b612dfd8861457a565b15612e0757600080fd5b60096000612e1c88600b63ffffffff61468816565b600160f060020a031916815260208101919091526040016000205460ff161515612e4557600080fd5b600160a060020a0388166000908152601460205260409020805463ffffffff1916600386810b63ffffffff9081169290921767ffffffff0000000019166401000000009187900b83169190910217909155612ea5908790600b9061468816565b600160a060020a0389166000908152601460205260409020805460f060020a909204604060020a0269ffff000000000000000019909216919091179055612ef386600d63ffffffff61469e16565b600160a060020a03891660009081526014602052604090208054608060020a909204605060020a0279ffffffffffffffffffffffffffffffff0000000000000000000019909216919091179055612f5186601d63ffffffff61464a16565b600160a060020a0389166000908152601460205260408120600101805460f860020a90930490910b60ff16608060020a0270ff0000000000000000000000000000000019909216919091179055612faf86601e63ffffffff61464a16565b600160a060020a0389166000908152601460205260408120805460f860020a90930490910b60ff1660d060020a027aff00000000000000000000000000000000000000000000000000001990921691909117905561301486601f63ffffffff61469e16565b600160a060020a038916600090815260146020526040902060010180546001608060020a031916608060020a90920491909117905561305486602f614688565b600160a060020a03891660009081526014602052604090206001908101805460f060020a90930490910b61ffff16710100000000000000000000000000000000000272ffff00000000000000000000000000000000001990921691909117905560f860020a6130ca87603163ffffffff61464a16565b600160f860020a031916146130e05760006130e3565b60015b600160a060020a038916600090815260146020526040902060010180549115157301000000000000000000000000000000000000000273ff000000000000000000000000000000000000001990921691909117905561314986603263ffffffff61468816565b600160a060020a03891660008181526014602052604081206001808201805460f060020a909604820b61ffff16740100000000000000000000000000000000000000000275ffff00000000000000000000000000000000000000001990961695909517909455601680548086019091557fd833147d7dc355ba459fc788f669e58cfaf9dc25ddcd0702e87d69c7b512428981018054600160a060020a031916851790559282526003019190915560159061320a89600b63ffffffff61468816565b600160f060020a0319168152602081019190915260400160009081209061323889600d63ffffffff61469e16565b6fffffffffffffffffffffffffffffffff19166fffffffffffffffffffffffffffffffff191681526020019081526020016000208990806001815401808255809150509060018203906000526020600020016000909192909190916101000a815481600160a060020a030219169083600160a060020a0316021790555003601460008a600160a060020a0316600160a060020a03168152602001908152602001600020600201819055506001601460008a600160a060020a0316600160a060020a0316815260200190815260200160002060040160006101000a81548160ff02191690831515021790555087600160a060020a03167fdc94eebf39359cb097be68bd4890a58fce65c66d2d284d4349f666013dc8a43d60405160405180910390a2600d54604080517f18a6d58b000000000000000000000000000000000000000000000000000000008152600160a060020a038b81166004830152602482018b9052915191909216916318a6d58b91604480830192600092919082900301818387803b158015612ccb57600080fd5b600160f860020a031985167f3300000000000000000000000000000000000000000000000000000000000000141561390d57600254600160a060020a0389811691161461341357600080fd5b600a600061342888600b63ffffffff61468816565b600160f060020a031916815260208101919091526040016000205487101561344f57600080fd5b61346861346387606d63ffffffff6146ca16565b610e66565b1561347257600080fd5b6008600061348788600b63ffffffff61468816565b600160f060020a031916815260208101919091526040016000205460ff1615156134b057600080fd5b6134c186606d63ffffffff6146ca16565b600160a060020a0381166000908152601860205260409020805463ffffffff1916600387810b63ffffffff9081169290921767ffffffff0000000019166401000000009188900b83169190910217909155909250613524908790600b9061468816565b600160a060020a0383166000908152601860205260409020805460f060020a909204604060020a0269ffff00000000000000001990921691909117905561357286600d63ffffffff61469e16565b600160a060020a03831660009081526018602052604090208054608060020a909204605060020a0279ffffffffffffffffffffffffffffffff00000000000000000000199092169190911790556135d086601d63ffffffff61469e16565b600160a060020a038316600090815260186020526040902060010180546001608060020a031916608060020a90920491909117905561361086602d61469e565b600160a060020a038316600090815260186020526040902060010180546fffffffffffffffffffffffffffffffff16608060020a9283900490920291909117905561365c86603d6146b4565b600160a060020a03831660009081526018602052604090206002015561368986605d63ffffffff61469e16565b600160a060020a03831660008181526018602052604081206003810180546001608060020a031916608060020a90950494909417909355601a805460018181019092557f057c384a7d1c54f3a1b2e5e67b2617b8224fdfd1ea7234eea573a6ff665ff63e81018054600160a060020a03191690941790935560059093019190915560199061371889600b614688565b600160f060020a0319168152602081019190915260400160009081209061374689600d63ffffffff61469e16565b6001608060020a03191681526020808201929092526040908101600090812080546001808201835591835284832081018054600160a060020a031916600160a060020a038a169081179091558084526018865292849020959003810160048601556006909401805460ff19169094179093558051928352517ff45ad76a8c4c14053708bfd052607c5e35446beb04fbdff6f2f3c9dde8e83b379281900390910190a1600d54604080517fd4d84da5000000000000000000000000000000000000000000000000000000008152600160a060020a038581166004830152602482018b90529151919092169163d4d84da591604480830192600092919082900301818387803b15801561385657600080fd5b505af115801561386a573d6000803e3d6000fd5b5050600c54600d54604080517fa9059cbb000000000000000000000000000000000000000000000000000000008152600160a060020a039283166004820152602481018d9052905191909216935063a9059cbb925060448083019260209291908290030181600087803b1580156138e057600080fd5b505af11580156138f4573d6000803e3d6000fd5b505050506040513d602081101561390a57600080fd5b50505b5050505050505050565b60056020526000908152604090205460ff1681565b60096020526000908152604090205460ff1681565b600160a060020a031660009081526013602052604090205490565b600054600160a060020a0316331461397357600080fd5b600160a060020a038116151561398857600080fd5b600160a060020a03166000908152600560205260409020805460ff19166001179055565b60065462010000900460ff1681565b6060601a8054806020026020016040519081016040528092919081815260200182805480156118d757602002820191906000526020600020908154600160a060020a031681526001909101906020018083116118b9575050505050905090565b60065460009060ff1615613a2e57600080fd5b336000818152601460205260408120548491604060020a90910460f060020a0290808080613a75613a5e8861107f565b613a69576001613a6c565b60025b60ff1686611bc7565b9350613aff600e60009054906101000a9004600160a060020a0316600160a060020a03166350ccf36b6040518163ffffffff1660e060020a028152600401602060405180830381600087803b158015613acd57600080fd5b505af1158015613ae1573d6000803e3d6000fd5b505050506040513d6020811015613af757600080fd5b5051856146fa565b600d54604080517fad71766e000000000000000000000000000000000000000000000000000000008152600160a060020a038b81166004830152915193965091169163ad71766e916024808201926020929091908290030181600087803b158015613b6957600080fd5b505af1158015613b7d573d6000803e3d6000fd5b505050506040513d6020811015613b9357600080fd5b50519150613ba1828761472c565b905082811115613bb057600080fd5b613bb93361457a565b1515613bc457600080fd5b600160a060020a038a16331415613bda57600080fd5b600d54604080517ff5923a6e000000000000000000000000000000000000000000000000000000008152336004820152600160a060020a038d81166024830152604482018d90529151919092169163f5923a6e91606480830192600092919082900301818387803b158015613c4e57600080fd5b505af1158015613c62573d6000803e3d6000fd5b50506006546040805160e160020a63660ea601028152600160a060020a038f8116600483015291516301000000909304909116935063cc1d4c0292506024808201926020929091908290030181600087803b158015613cc057600080fd5b505af1158015613cd4573d6000803e3d6000fd5b505050506040513d6020811015613cea57600080fd5b505115613e7257336000908152600f60209081526040808320600160a060020a038e1684529091529020549750871515613d4b57336000908152600f60209081526040808320600160a060020a038e16845290915290206127109081905597505b33600090815260136020526040902054613d7b90612710613d6c8c8c6146fa565b811515613d7557fe5b0461472c565b336000908152601360205260409020556064613d9889604f6146fa565b811515613da157fe5b04600f600033600160a060020a0316600160a060020a0316815260200190815260200160002060008c600160a060020a0316600160a060020a0316815260200190815260200160002081905550613e1d601060008c600160a060020a0316600160a060020a03168152602001908152602001600020548a61472c565b600160a060020a038b16600090815260106020908152604080832093909355338252601190522054613e4f908a61472c565b336000908152601160209081526040808320939093556012905220805460010190555b604080518a81529051600160a060020a038c169133917f3990db2d31862302a685e8086b5755072a6e2b5b780af1ee81ece35ee3cd33459181900360200190a350505050505050505050565b600054600160a060020a03163314613ed557600080fd5b60065462010000900460ff1615613eeb57600080fd5b60078054600160a060020a03909216600160a060020a03199092169190911790556006805462ff0000191662010000179055565b33600081815260056020526040812054909182918291829160ff161515613f4557600080fd5b613f4e8661457a565b1515613f5957600080fd5b600160a060020a038616600090815260146020908152604080832060028101549054604060020a810460f060020a02600160f060020a031916855260158452828520605060020a909104608060020a026001608060020a03191685529092529091208054919650906000198101908110613fcf57fe5b600091825260208083209190910154600160a060020a03898116845260148352604080852054604060020a810460f060020a02600160f060020a031916865260158552818620605060020a909104608060020a026001608060020a03191686529093529190922080549190921695508591908790811061404b57fe5b60009182526020808320919091018054600160a060020a031916600160a060020a039485161790558683168252601481526040808320600201899055928916825282822054604060020a810460f060020a02600160f060020a031916835260158252838320605060020a909104608060020a026001608060020a03191683529052208054906140de90600019830161473b565b50600160a060020a0386166000908152601460205260409020600301546016805491945090600019810190811061411157fe5b60009182526020909120015460168054600160a060020a03909216935083918590811061413a57fe5b60009182526020808320919091018054600160a060020a031916600160a060020a039485161790559184168152601490915260409020600301839055601680549061418990600019830161473b565b50600160a060020a0380871660008181526014602052604080822080547affffffffffffffffffffffffffffffffffffffffffffffffffffff1916815560018101805475ffffffffffffffffffffffffffffffffffffffffffff1916905560028101839055600381018390556004908101805460ff19169055600d5482517fb71738f1000000000000000000000000000000000000000000000000000000008152918201949094529051929093169263b71738f1926024808301939282900301818387803b15801561425a57600080fd5b505af115801561426e573d6000803e3d6000fd5b5050600d54604080517fd83edd70000000000000000000000000000000000000000000000000000000008152600160a060020a038b81166004830152915191909216935063d83edd709250602480830192600092919082900301818387803b1580156142d957600080fd5b505af11580156142ed573d6000803e3d6000fd5b505060408051600160a060020a038a16815290513393507fcf9fc954c975d15bad8f5fa3c1cd94f55105a98b1ecf33021ebb059122277f8f92509081900360200190a2505050505050565b600154600160a060020a0316331461434f57600080fd5b600160f060020a03199091166000908152600b6020526040902055565b600b6020526000908152604090205481565b600160a060020a0380821660008181526014602090815260408083208054600180830154600480850154600d5487517f8d837f380000000000000000000000000000000000000000000000000000000081529283019a909a529551600385810b9b640100000000870490910b9a60f060020a604060020a8804029a608060020a605060020a890481029b60d060020a909904820b9a8782029a918804830b997101000000000000000000000000000000000089048a0b99939860ff928316987301000000000000000000000000000000000000008204909316977401000000000000000000000000000000000000000090910490940b95929490921692638d837f389260248084019391929182900301818b87803b15801561449f57600080fd5b505af11580156144b3573d6000803e3d6000fd5b505050506040513d60208110156144c957600080fd5b50519c9e9b9d50999b989a9799509597949693959193909250565b600654610100900460ff1681565b600160f060020a0319821660009081526015602090815260408083206001608060020a03198516845282529182902080548351818402810184019094528084526060939283018282801561264c57602002820191906000526020600020908154600160a060020a0316815260019091019060200180831161262e575050505050905092915050565b600160a060020a038116600090815260146020526040902054604060020a900460f060020a02600160f060020a0319161515919050565b600054600160a060020a031633146145c857600080fd5b600654610100900460ff16156145dd57600080fd5b6006805461ff0019600160a060020a0390931663010000000276ffffffffffffffffffffffffffffffffffffffff000000199091161791909116610100179055565b600160a060020a039182166000908152600f6020908152604080832093909416825291909152205490565b6000808260010184511015151561466057600080fd5b505081810160200151805b5092915050565b6000808260040184511015151561466057600080fd5b6000808260020184511015151561466057600080fd5b6000808260100184511015151561466057600080fd5b6000808260200184511015151561466057600080fd5b600080826014018451101515156146e057600080fd5b505001602001516c01000000000000000000000000900490565b60008083151561470d576000915061466b565b5082820282848281151561471d57fe5b041461472557fe5b9392505050565b60008282018381101561472557fe5b81548183558181111561475f5760008381526020902061475f918101908301614764565b505050565b6118df91905b8082111561477e576000815560010161476a565b50905600a165627a7a723058207b4cd777acf6d8dadaebb4438f302e8df6a044ec243b2e9297a798cd3ba6b3860029",
  "source": "pragma solidity ^0.4.23;\n\nimport './DetherSetup.sol';\nimport './dth/tokenfoundry/ERC223ReceivingContract.sol';\nimport './zepellin/SafeMath.sol';\nimport './dth/tokenfoundry/ERC223Basic.sol';\nimport './DetherAccessControl.sol';\nimport 'bytes/BytesLib.sol';\n\ncontract ExchangeRateOracle {\n  function getWeiPriceOneUsd() external view returns(uint256);\n}\n\n// only interface to save gas\ncontract DetherBank {\n  function withdrawDthTeller(address _receiver) external;\n  function withdrawDthShop(address _receiver) external;\n  function withdrawDthShopAdmin(address _from, address _receiver) external;\n  function addTokenShop(address _from, uint _value) external;\n  function addTokenTeller(address _from, uint _value) external;\n  function addEthTeller(address _from, uint _value) external payable returns (bool);\n  function withdrawEth(address _from, address _to, uint _amount) external;\n  function refundEth(address _from) external;\n  function getDthTeller(address _user) public view returns (uint);\n  function getDthShop(address _user) public view returns (uint);\n  function getEthBalTeller(address _user) public view returns (uint);\n  function getWeiSoldToday(address _user) public view returns (uint256 weiSoldToday);\n  function transferOwnership(address newOwner) public;\n}\n\ncontract DetherCore is DetherSetup, ERC223ReceivingContract, SafeMath {\n  using BytesLib for bytes;\n\n  /**\n  * Event\n  */\n  // when a Teller is registered\n  event RegisterTeller(address indexed tellerAddress);\n  // when a teller add funds for trade\n  event AddFunds(address indexed tellerAddress, uint amount);\n  // when a teller is deleted\n  event DeleteTeller(address indexed tellerAddress);\n  // when teller update\n  event UpdateTeller(address indexed tellerAddress);\n  // when a teller send to a buyer\n  event Sent(address indexed _from, address indexed _to, uint amount);\n  // when a shop register\n  event RegisterShop(address shopAddress);\n  // when a shop delete\n  event DeleteShop(address shopAddress);\n  // when a moderator delete a shop\n  event DeleteShopModerator(address indexed moderator, address shopAddress);\n  // when a moderator delete a teller\n  event DeleteTellerModerator(address indexed moderator, address tellerAddress);\n\n  /**\n   * Modifier\n   */\n  // if teller has staked enough dth to\n  modifier tellerHasStaked(uint amount) {\n    require(bank.getDthTeller(msg.sender) >= amount);\n    _;\n  }\n  // if shop has staked enough dth to\n  modifier shopHasStaked(uint amount) {\n    require(bank.getDthShop(msg.sender) >= amount);\n    _;\n  }\n\n  /*\n   * External contract\n   */\n  // DTH contract\n  ERC223Basic public dth;\n  // bank contract where are stored ETH and DTH\n  DetherBank public bank;\n\n  ExchangeRateOracle public priceOracle;\n\n  // teller struct\n  struct Teller {\n    int32 lat;            // Latitude\n    int32 lng;            // Longitude\n    bytes2 countryId;     // countryID (in hexa), ISO ALPHA 2 https://en.wikipedia.org/wiki/ISO_3166-1_alpha-2\n    bytes16 postalCode;   // postalCode if present, in Hexa https://en.wikipedia.org/wiki/List_of_postal_codes\n\n    int8 currencyId;      // 1 - 100 , cf README\n    bytes16 messenger;    // telegrame nickname\n    int8 avatarId;        // 1 - 100 , regarding the front-end app you use\n    int16 rates;          // margin of tellers , -999 - +9999 , corresponding to -99,9% x 10  , 999,9% x 10\n    bool buyer;           // appear as a buyer as well on the map\n    int16 buyRates;         // margin of tellers of\n\n    uint zoneIndex;       // index of the zone mapping\n    uint generalIndex;    // index of general mapping\n    bool online;          // switch online/offline, if the tellers want to be inactive without deleting his point\n  }\n\n  mapping(address => mapping(address => uint)) internal pairSellsLoyaltyPerc;\n  //      from               to         percentage of loyalty points from gets\n\n  /*\n   * Reputation field V0.1\n   * Reputation is based on volume sell, volume buy, and number of transaction\n   */\n  mapping(address => uint) volumeBuy;\n  mapping(address => uint) volumeSell;\n  mapping(address => uint) nbTrade;\n  mapping(address => uint256) loyaltyPoints;\n\n  // general mapping of teller\n  mapping(address => Teller) teller;\n  // mappoing of teller by COUNTRYCODE => POSTALCODE\n  mapping(bytes2 => mapping(bytes16 => address[])) tellerInZone;\n  // teller array currently registered\n  address[] public tellerIndex; // unordered list of teller register on it\n  bool isStarted = false;\n  // shop struct\n  struct Shop {\n    int32 lat;            // latitude\n    int32 lng;            // longitude\n    bytes2 countryId;     // countryID (in hexa char), ISO ALPHA 2 https://en.wikipedia.org/wiki/ISO_3166-1_alpha-2\n    bytes16 postalCode;   // postalCode if present (in hexa char), in Hexa https://en.wikipedia.org/wiki/List_of_postal_codes\n    bytes16 cat;          // Category of the shop (in hex char), will be used later for search engine and auction by zone\n    bytes16 name;         // name of the shop (in hex char)\n    bytes32 description;  // description of the shop\n    bytes16 opening;      // opening hours, cf README for the format\n\n    uint zoneIndex;       // index of the zone mapping\n    uint generalIndex;    // index of general mapping\n    bool detherShop;      // bool if shop is registered by dether as business partnership (still required DTH)\n  }\n\n  // general mapping of shop\n  mapping(address => Shop) shop;\n  // mapping of teller by COUNTRYCODE => POSTALCODE\n  mapping(bytes2 => mapping(bytes16 => address[])) shopInZone;\n  // shop array currently registered\n  address[] public shopIndex; // unordered list of shop register on it\n\n  /*\n   * Instanciation\n   */\n  function DetherCore() {\n   ceoAddress = msg.sender;\n  }\n  function initContract (address _dth, address _bank) external onlyCEO {\n    require(!isStarted);\n    dth = ERC223Basic(_dth);\n    bank = DetherBank(_bank);\n    isStarted = true;\n  }\n\n  function setPriceOracle (address _priceOracle) external onlyCFO {\n    priceOracle = ExchangeRateOracle(_priceOracle);\n  }\n\n  /**\n   * Core fonction\n   */\n\n  /**\n   * @dev Standard ERC223 function that will handle incoming token transfers.\n   * This is the main function to register SHOP or TELLER, its calling when you\n   * send token to the DTH contract and by passing data as bytes on the third\n   * parameter.\n   * Its not supposed to be use on its own but will only handle incoming DTH\n   * transaction.\n   * The _data will wait for\n   * [1st byte] 1 (0x31) for shop OR 2 (0x32) for teller\n   * FOR SHOP AND TELLER:\n   * 2sd to 5th bytes lat\n   * 6th to 9th bytes lng\n   * ...\n   * Modifier tier1: Check if address is whitelisted with the sms verification\n   */\n  function tokenFallback(address _from, uint _value, bytes _data) whenNotPaused tier1(_from ) {\n    // require than the token fallback is triggered from the dth token contract\n    require(msg.sender == address(dth));\n    // check first byte to know if its shop or teller registration\n    // 1 / 0x31 = shop // 2 / 0x32 = teller\n    bytes1 _func = _data.toBytes1(0);\n    int32 posLat = _data.toBytes1(1) == bytes1(0x01) ? int32(_data.toBytes4(2)) * -1 : int32(_data.toBytes4(2));\n    int32 posLng = _data.toBytes1(6) == bytes1(0x01) ? int32(_data.toBytes4(7)) * -1 : int32(_data.toBytes4(7));\n    if (_func == bytes1(0x31)) { // shop registration // GAS USED 311000\n      // require staked greater than licence price\n      require(_value >= licenceShop[_data.toBytes2(11)]);\n      // require its not already shop\n      require(!isShop(_from));\n      // require zone is open\n      require(openedCountryShop[_data.toBytes2(11)]);\n\n      shop[_from].lat = posLat;\n      shop[_from].lng = posLng;\n      shop[_from].countryId = _data.toBytes2(11);\n      shop[_from].postalCode = _data.toBytes16(13);\n      shop[_from].cat = _data.toBytes16(29);\n      shop[_from].name = _data.toBytes16(45);\n      shop[_from].description = _data.toBytes32(61);\n      shop[_from].opening = _data.toBytes16(93);\n      shop[_from].generalIndex = shopIndex.push(_from) - 1;\n      shop[_from].zoneIndex = shopInZone[_data.toBytes2(11)][_data.toBytes16(13)].push(_from) - 1;\n      emit RegisterShop(_from);\n      bank.addTokenShop(_from,_value);\n      dth.transfer(address(bank), _value);\n    } else if (_func == bytes1(0x32)) { // teller registration -- GAS USED 310099\n      // require staked greater than licence price\n      require(_value >= licenceTeller[_data.toBytes2(11)]);\n      // require is not already a teller\n      require(!isTeller(_from));\n      // require zone is open\n      require(openedCountryTeller[_data.toBytes2(11)]);\n\n      teller[_from].lat = posLat;\n      teller[_from].lng = posLng;\n      teller[_from].countryId = _data.toBytes2(11);\n      teller[_from].postalCode = _data.toBytes16(13);\n      teller[_from].avatarId = int8(_data.toBytes1(29));\n      teller[_from].currencyId = int8(_data.toBytes1(30));\n      teller[_from].messenger = _data.toBytes16(31);\n      teller[_from].rates = int16(_data.toBytes2(47));\n      teller[_from].buyer = _data.toBytes1(49) == bytes1(0x01) ? true : false;\n      teller[_from].buyRates = int16(_data.toBytes2(50));\n      teller[_from].generalIndex = tellerIndex.push(_from) - 1;\n      teller[_from].zoneIndex = tellerInZone[_data.toBytes2(11)][_data.toBytes16(13)].push(_from) - 1;\n      teller[_from].online = true;\n      emit RegisterTeller(_from);\n      bank.addTokenTeller(_from, _value);\n      dth.transfer(address(bank), _value);\n    } else if (_func == bytes1(0x33)) {  // shop bulk registration\n      // We need to have the possibility to register in bulk some shop\n      // For big retailer company willing to be listed on dether, we need to have a way to add\n      // all their shop from one address\n      // This functionnality will become available for anyone willing to list multiple shop\n      // in the futures contract\n\n      // Only the CSO should be able to register shop in bulk\n      require(_from == csoAddress);\n      // Each shop still need his own staking\n      require(_value >= licenceShop[_data.toBytes2(11)]);\n      // require the addresses not already registered\n      require(!isShop(address(_data.toAddress(109))));\n      // require zone is open\n      require(openedCountryShop[_data.toBytes2(11)]);\n      address newShopAddress = _data.toAddress(109);\n      shop[newShopAddress].lat = posLat;\n      shop[newShopAddress].lng = posLng;\n      shop[newShopAddress].countryId = _data.toBytes2(11);\n      shop[newShopAddress].postalCode = _data.toBytes16(13);\n      shop[newShopAddress].cat = _data.toBytes16(29);\n      shop[newShopAddress].name = _data.toBytes16(45);\n      shop[newShopAddress].description = _data.toBytes32(61);\n      shop[newShopAddress].opening = _data.toBytes16(93);\n      shop[newShopAddress].generalIndex = shopIndex.push(newShopAddress) - 1;\n      shop[newShopAddress].zoneIndex = shopInZone[_data.toBytes2(11)][_data.toBytes16(13)].push(newShopAddress) - 1;\n      shop[newShopAddress].detherShop = true;\n      emit RegisterShop(newShopAddress);\n      bank.addTokenShop(newShopAddress, _value);\n      dth.transfer(address(bank), _value);\n    }\n  }\n\n  /**\n   * a teller can update his profile\n   * If a teller want to change his location, he would need to delete and recreate\n   * a new point\n   */\n  function updateTeller(\n    int8 currencyId,\n    bytes16 messenger,\n    int8 avatarId,\n    int16 rates,\n    bool online\n   ) public payable {\n    require(isTeller(msg.sender));\n    if (currencyId != teller[msg.sender].currencyId)\n    teller[msg.sender].currencyId = currencyId;\n    if (teller[msg.sender].messenger != messenger)\n     teller[msg.sender].messenger = messenger;\n    if (teller[msg.sender].avatarId != avatarId)\n     teller[msg.sender].avatarId = avatarId;\n    if (teller[msg.sender].rates != rates)\n     teller[msg.sender].rates = rates;\n    if (teller[msg.sender].online != online)\n      teller[msg.sender].online = online;\n    if (msg.value > 0) {\n      bank.addEthTeller.value(msg.value)(msg.sender, msg.value);\n    }\n    emit UpdateTeller(msg.sender);\n  }\n\n  // mapping for limiting the sell amount\n  //      tier             countryId usdDailyLimit\n  mapping(uint => mapping (bytes2 => uint)) limitTier;\n\n  function setSellDailyLimit(uint _tier, bytes2 _countryId, uint256 _limitUsd) public onlyCFO {\n    limitTier[_tier][_countryId] = _limitUsd;\n  }\n  function getSellDailyLimit(uint _tier, bytes2 _countryId) public view returns(uint256 limitUsd) {\n    limitUsd = limitTier[_tier][_countryId];\n  }\n\n  modifier doesNotExceedDailySellLimit(address _teller, uint256 _weiSellAmount) {\n    // limits are set per country\n    bytes2 countryId = teller[_teller].countryId;\n\n    // user is always tier1, and could be tier2\n    uint256 usdDailyLimit = getSellDailyLimit(isTier2(_teller) ? 2 : 1, countryId);\n\n    // weiPriceOneUsd is set by the oracle (which runs every day at midnight)\n    uint256 weiDailyLimit = SafeMath.mul(priceOracle.getWeiPriceOneUsd(), usdDailyLimit);\n\n    // with each sell we update wei sold today for that user inside the Bank contract\n    uint256 weiSoldToday = bank.getWeiSoldToday(_teller);\n\n    uint256 newWeiSoldToday = SafeMath.add(weiSoldToday, _weiSellAmount);\n\n    // we may not exceed the daily wei limit with this sell\n    require(newWeiSoldToday <= weiDailyLimit);\n    _;\n  }\n\n  function getPairSellLoyaltyPerc(address _from, address _to) public view returns(uint256) {\n    return pairSellsLoyaltyPerc[_from][_to];\n  }\n\n  function getLoyaltyPoints(address who) public view returns (uint256) {\n    return loyaltyPoints[who];\n  }\n\n  /**\n   * SellEth\n   * average gas cost: 123173\n   * @param _to -> the address for the receiver\n   * @param _amount -> the amount to send\n   */\n  function sellEth(address _to, uint _amount)\n    whenNotPaused\n    doesNotExceedDailySellLimit(msg.sender, _amount)\n    external\n  {\n    require(isTeller(msg.sender));\n    require(_to != msg.sender);\n    // send eth to the receiver from the bank contract\n    // this will also update eth amount sold 'today' by msg.sender\n    bank.withdrawEth(msg.sender, _to, _amount);\n\n    // increase reput for the buyer and the seller Only if the buyer is also whitelisted,\n    // It's a way to incentive user to trade on the system\n    if (smsCertifier.certified(_to)) {\n      uint currentSellerLoyaltyPointsPerc = pairSellsLoyaltyPerc[msg.sender][_to];\n      if (currentSellerLoyaltyPointsPerc == 0) {\n        // this is the first sell between seller and buyer, set to 100%\n        pairSellsLoyaltyPerc[msg.sender][_to] = 10000;\n        currentSellerLoyaltyPointsPerc = 10000;\n      }\n\n      // add percentage of loyaltyPoints of this sell to seller's loyaltyPoints\n      loyaltyPoints[msg.sender] = SafeMath.add(loyaltyPoints[msg.sender], SafeMath.mul(_amount, currentSellerLoyaltyPointsPerc) / 10000);\n\n      // update the loyaltyPoints percentage of the seller, there will be a 21% decrease with every sell to the same buyer (100 - 21 = 79)\n      pairSellsLoyaltyPerc[msg.sender][_to] = SafeMath.mul(currentSellerLoyaltyPointsPerc, 79) / 100;\n\n      volumeBuy[_to] = SafeMath.add(volumeBuy[_to], _amount);\n      volumeSell[msg.sender] = SafeMath.add(volumeSell[msg.sender], _amount);\n      nbTrade[msg.sender] += 1;\n    }\n    emit Sent(msg.sender, _to, _amount);\n  }\n\n  /**\n   * switchStatus\n   * Turn status teller on/off\n   */\n  function switchStatus(bool _status) external {\n    if (teller[msg.sender].online != _status)\n     teller[msg.sender].online = _status;\n  }\n\n  /**\n   * addFunds\n   * teller can add more funds on his sellpoint\n   */\n  function addFunds() external payable {\n    require(isTeller(msg.sender));\n    require(bank.addEthTeller.value(msg.value)(msg.sender, msg.value));\n    emit AddFunds(msg.sender, msg.value);\n  }\n\n  // gas used 67841\n  // a teller can delete a sellpoint\n  function deleteTeller() external {\n    require(isTeller(msg.sender));\n    uint rowToDelete1 = teller[msg.sender].zoneIndex;\n    address keyToMove1 = tellerInZone[teller[msg.sender].countryId][teller[msg.sender].postalCode][tellerInZone[teller[msg.sender].countryId][teller[msg.sender].postalCode].length - 1];\n    tellerInZone[teller[msg.sender].countryId][teller[msg.sender].postalCode][rowToDelete1] = keyToMove1;\n    teller[keyToMove1].zoneIndex = rowToDelete1;\n    tellerInZone[teller[msg.sender].countryId][teller[msg.sender].postalCode].length--;\n\n    uint rowToDelete2 = teller[msg.sender].generalIndex;\n    address keyToMove2 = tellerIndex[tellerIndex.length - 1];\n    tellerIndex[rowToDelete2] = keyToMove2;\n    teller[keyToMove2].generalIndex = rowToDelete2;\n    tellerIndex.length--;\n    delete teller[msg.sender];\n    bank.withdrawDthTeller(msg.sender);\n    bank.refundEth(msg.sender);\n    emit DeleteTeller(msg.sender);\n  }\n\n  // gas used 67841\n  // A moderator can delete a sellpoint\n  function deleteTellerMods(address _toDelete) isTellerModerator(msg.sender) external {\n    require(isTeller(_toDelete));\n    uint rowToDelete1 = teller[_toDelete].zoneIndex;\n    address keyToMove1 = tellerInZone[teller[_toDelete].countryId][teller[_toDelete].postalCode][tellerInZone[teller[_toDelete].countryId][teller[_toDelete].postalCode].length - 1];\n    tellerInZone[teller[_toDelete].countryId][teller[_toDelete].postalCode][rowToDelete1] = keyToMove1;\n    teller[keyToMove1].zoneIndex = rowToDelete1;\n    tellerInZone[teller[_toDelete].countryId][teller[_toDelete].postalCode].length--;\n\n    uint rowToDelete2 = teller[_toDelete].generalIndex;\n    address keyToMove2 = tellerIndex[tellerIndex.length - 1];\n    tellerIndex[rowToDelete2] = keyToMove2;\n    teller[keyToMove2].generalIndex = rowToDelete2;\n    tellerIndex.length--;\n    delete teller[_toDelete];\n    bank.withdrawDthTeller(_toDelete);\n    bank.refundEth(_toDelete);\n    emit DeleteTellerModerator(msg.sender, _toDelete);\n  }\n\n  // gas used 67841\n  // A shop owner can delete his point.\n  function deleteShop() external {\n    require(isShop(msg.sender));\n    uint rowToDelete1 = shop[msg.sender].zoneIndex;\n    address keyToMove1 = shopInZone[shop[msg.sender].countryId][shop[msg.sender].postalCode][shopInZone[shop[msg.sender].countryId][shop[msg.sender].postalCode].length - 1];\n    shopInZone[shop[msg.sender].countryId][shop[msg.sender].postalCode][rowToDelete1] = keyToMove1;\n    shop[keyToMove1].zoneIndex = rowToDelete1;\n    shopInZone[shop[msg.sender].countryId][shop[msg.sender].postalCode].length--;\n\n    uint rowToDelete2 = shop[msg.sender].generalIndex;\n    address keyToMove2 = shopIndex[shopIndex.length - 1];\n    shopIndex[rowToDelete2] = keyToMove2;\n    shop[keyToMove2].generalIndex = rowToDelete2;\n    shopIndex.length--;\n    delete shop[msg.sender];\n    bank.withdrawDthShop(msg.sender);\n    emit DeleteShop(msg.sender);\n  }\n\n  // gas used 67841\n  // Moderator can delete a shop point\n  function deleteShopMods(address _toDelete) isShopModerator(msg.sender) external {\n    uint rowToDelete1 = shop[_toDelete].zoneIndex;\n    address keyToMove1 = shopInZone[shop[_toDelete].countryId][shop[_toDelete].postalCode][shopInZone[shop[_toDelete].countryId][shop[_toDelete].postalCode].length - 1];\n    shopInZone[shop[_toDelete].countryId][shop[_toDelete].postalCode][rowToDelete1] = keyToMove1;\n    shop[keyToMove1].zoneIndex = rowToDelete1;\n    shopInZone[shop[_toDelete].countryId][shop[_toDelete].postalCode].length--;\n\n    uint rowToDelete2 = shop[_toDelete].generalIndex;\n    address keyToMove2 = shopIndex[shopIndex.length - 1];\n    shopIndex[rowToDelete2] = keyToMove2;\n    shop[keyToMove2].generalIndex = rowToDelete2;\n    shopIndex.length--;\n    if (!shop[_toDelete].detherShop)\n      bank.withdrawDthShop(_toDelete);\n    else\n      bank.withdrawDthShopAdmin(_toDelete, csoAddress);\n    delete shop[_toDelete];\n    emit DeleteShopModerator(msg.sender, _toDelete);\n  }\n\n  /**\n   *  GETTER\n   */\n\n  // get teller\n  // return teller info\n  function getTeller(address _teller) public view returns (\n    int32 lat,\n    int32 lng,\n    bytes2 countryId,\n    bytes16 postalCode,\n    int8 currencyId,\n    bytes16 messenger,\n    int8 avatarId,\n    int16 rates,\n    uint balance,\n    bool online,\n    bool buyer,\n    int16 buyRates\n    ) {\n    Teller storage theTeller = teller[_teller];\n    lat = theTeller.lat;\n    lng = theTeller.lng;\n    countryId = theTeller.countryId;\n    postalCode = theTeller.postalCode;\n    currencyId = theTeller.currencyId;\n    messenger = theTeller.messenger;\n    avatarId = theTeller.avatarId;\n    rates = theTeller.rates;\n    online = theTeller.online;\n    buyer = theTeller.buyer;\n    buyRates = theTeller.buyRates;\n    balance = bank.getEthBalTeller(_teller);\n  }\n\n  /*\n   * Shop ----------------------------------\n   * return Shop value\n   */\n  function getShop(address _shop) public view returns (\n   int32 lat,\n   int32 lng,\n   bytes2 countryId,\n   bytes16 postalCode,\n   bytes16 cat,\n   bytes16 name,\n   bytes32 description,\n   bytes16 opening\n   ) {\n    Shop storage theShop = shop[_shop];\n    lat = theShop.lat;\n    lng = theShop.lng;\n    countryId = theShop.countryId;\n    postalCode = theShop.postalCode;\n    cat = theShop.cat;\n    name = theShop.name;\n    description = theShop.description;\n    opening = theShop.opening;\n   }\n\n   // get reput\n   // return reputation data from teller\n  function getReput(address _teller) public view returns (\n   uint buyVolume,\n   uint sellVolume,\n   uint numTrade,\n   uint256 loyaltyPoints_\n   ) {\n     buyVolume = volumeBuy[_teller];\n     sellVolume = volumeSell[_teller];\n     numTrade = nbTrade[_teller];\n     loyaltyPoints_ = loyaltyPoints[_teller];\n  }\n  // return balance of teller put in escrow\n  function getTellerBalance(address _teller) public view returns (uint) {\n    return bank.getEthBalTeller(_teller);\n  }\n\n  // return an array of address of all zone present on a zone\n  // zone is a mapping COUNTRY => POSTALCODE\n  function getZoneShop(bytes2 _country, bytes16 _postalcode) public view returns (address[]) {\n     return shopInZone[_country][_postalcode];\n  }\n\n  // return array of address of all shop\n  function getAllShops() public view returns (address[]) {\n   return shopIndex;\n  }\n\n  function isShop(address _shop) public view returns (bool ){\n   return (shop[_shop].countryId != bytes2(0x0));\n  }\n\n  // return an array of address of all teller present on a zone\n  // zone is a mapping COUNTRY => POSTALCODE\n  function getZoneTeller(bytes2 _country, bytes16 _postalcode) public view returns (address[]) {\n     return tellerInZone[_country][_postalcode];\n  }\n\n  // return array of address of all teller\n  function getAllTellers() public view returns (address[]) {\n   return tellerIndex;\n  }\n\n  // return if teller or not\n  function isTeller(address _teller) public view returns (bool ){\n    return (teller[_teller].countryId != bytes2(0x0));\n  }\n\n  /*\n   * misc\n   */\n   // return info about how much DTH the shop has staked\n  function getStakedShop(address _shop) public view returns (uint) {\n    return bank.getDthShop(_shop);\n  }\n  // return info about how much DTH the teller has staked\n  function getStakedTeller(address _teller) public view returns (uint) {\n    return bank.getDthTeller(_teller);\n  }\n  // give ownership to the bank contract\n  function transferBankOwnership(address _newbankowner) external onlyCEO whenPaused {\n    bank.transferOwnership(_newbankowner);\n  }\n}\n",
  "sourcePath": "/app/contracts/DetherCore.sol",
  "compiler": {
    "name": "solc",
    "version": "0.4.24+commit.e67f0147.Emscripten.clang"
  },
  "schemaVersion": "2.0.1",
  "updatedAt": "2018-10-16T07:35:52.978Z"
}