{
  "contractName": "ERC223BasicToken",
  "abi": [
    {
      "constant": true,
      "inputs": [],
      "name": "totalSupply",
      "outputs": [
        {
          "name": "",
          "type": "uint256"
        }
      ],
      "payable": false,
      "stateMutability": "view",
      "type": "function"
    },
    {
      "constant": true,
      "inputs": [
        {
          "name": "_owner",
          "type": "address"
        }
      ],
      "name": "balanceOf",
      "outputs": [
        {
          "name": "balance",
          "type": "uint256"
        }
      ],
      "payable": false,
      "stateMutability": "view",
      "type": "function"
    },
    {
      "anonymous": false,
      "inputs": [
        {
          "indexed": true,
          "name": "_from",
          "type": "address"
        },
        {
          "indexed": true,
          "name": "_to",
          "type": "address"
        },
        {
          "indexed": true,
          "name": "_value",
          "type": "uint256"
        },
        {
          "indexed": false,
          "name": "_data",
          "type": "bytes"
        }
      ],
      "name": "Transfer",
      "type": "event"
    },
    {
      "anonymous": false,
      "inputs": [
        {
          "indexed": true,
          "name": "from",
          "type": "address"
        },
        {
          "indexed": true,
          "name": "to",
          "type": "address"
        },
        {
          "indexed": false,
          "name": "value",
          "type": "uint256"
        }
      ],
      "name": "Transfer",
      "type": "event"
    },
    {
      "constant": false,
      "inputs": [
        {
          "name": "_to",
          "type": "address"
        },
        {
          "name": "_value",
          "type": "uint256"
        }
      ],
      "name": "transfer",
      "outputs": [
        {
          "name": "",
          "type": "bool"
        }
      ],
      "payable": false,
      "stateMutability": "nonpayable",
      "type": "function"
    },
    {
      "constant": false,
      "inputs": [
        {
          "name": "_to",
          "type": "address"
        },
        {
          "name": "_value",
          "type": "uint256"
        },
        {
          "name": "_data",
          "type": "bytes"
        }
      ],
      "name": "transfer",
      "outputs": [
        {
          "name": "",
          "type": "bool"
        }
      ],
      "payable": false,
      "stateMutability": "nonpayable",
      "type": "function"
    }
  ],
  "bytecode": "0x608060405234801561001057600080fd5b50610495806100206000396000f3006080604052600436106100615763ffffffff7c010000000000000000000000000000000000000000000000000000000060003504166318160ddd811461006657806370a082311461008d578063a9059cbb146100ae578063be45fd62146100e6575b600080fd5b34801561007257600080fd5b5061007b61014f565b60408051918252519081900360200190f35b34801561009957600080fd5b5061007b600160a060020a0360043516610155565b3480156100ba57600080fd5b506100d2600160a060020a0360043516602435610170565b604080519115158252519081900360200190f35b3480156100f257600080fd5b50604080516020600460443581810135601f81018490048402850184019095528484526100d2948235600160a060020a03169460248035953695946064949201919081908401838280828437509497506101949650505050505050565b60015490565b600160a060020a031660009081526020819052604090205490565b6000606061017f848483610194565b151561018a57600080fd5b5060019392505050565b6000833b816101a38686610360565b15156101ae57600080fd5b60008211156102a657506040517fc0ee0b8a0000000000000000000000000000000000000000000000000000000081523360048201818152602483018790526060604484019081528651606485015286518994600160a060020a0386169463c0ee0b8a9490938b938b9360840190602085019080838360005b8381101561023f578181015183820152602001610227565b50505050905090810190601f16801561026c5780820380516001836020036101000a031916815260200191505b50945050505050600060405180830381600087803b15801561028d57600080fd5b505af11580156102a1573d6000803e3d6000fd5b505050505b8486600160a060020a031633600160a060020a03167fe19260aff97b920c7df27010903aeb9c8d2be5d310a2c67824cf3f15396e4c16876040518080602001828103825283818151815260200191508051906020019080838360005b8381101561031a578181015183820152602001610302565b50505050905090810190601f1680156103475780820380516001836020036101000a031916815260200191505b509250505060405180910390a450600195945050505050565b6000600160a060020a038316151561037757600080fd5b3360009081526020819052604090205482111561039357600080fd5b336000908152602081905260409020546103b3908363ffffffff61044116565b3360009081526020819052604080822092909255600160a060020a038516815220546103e5908363ffffffff61045316565b600160a060020a038416600081815260208181526040918290209390935580518581529051919233927fddf252ad1be2c89b69c2b068fc378daa952ba7f163c4a11628f55a4df523b3ef9281900390910190a350600192915050565b60008282111561044d57fe5b50900390565b60008282018381101561046257fe5b93925050505600a165627a7a7230582063ad9ddd2223423f44c3f0c3579ee0bf0860d9957ce7546cb4c89318b56e44980029",
  "source": "pragma solidity ^0.4.18;\n\nimport \"zeppelin-solidity/contracts/token/ERC20/BasicToken.sol\";\n\nimport './ERC223Basic.sol';\nimport './ERC223ReceivingContract.sol';\n\n\n/**\n * @title ERC223 standard token implementation.\n */\ncontract ERC223BasicToken is ERC223Basic, BasicToken {\n\n    /**\n      * @dev Transfer the specified amount of tokens to the specified address.\n      *      Invokes the `tokenFallback` function if the recipient is a contract.\n      *      The token transfer fails if the recipient is a contract\n      *      but does not implement the `tokenFallback` function\n      *      or the fallback function to receive funds.\n      *\n      * @param _to    Receiver address.\n      * @param _value Amount of tokens that will be transferred.\n      * @param _data  Transaction metadata.\n      */\n    function transfer(address _to, uint _value, bytes _data) public returns (bool) {\n        // Standard function transfer similar to ERC20 transfer with no _data .\n        // Added due to backwards compatibility reasons .\n        uint codeLength;\n\n        assembly {\n            // Retrieve the size of the code on target address, this needs assembly .\n            codeLength := extcodesize(_to)\n        }\n\n        require(super.transfer(_to, _value));\n\n        if(codeLength>0) {\n            ERC223ReceivingContract receiver = ERC223ReceivingContract(_to);\n            receiver.tokenFallback(msg.sender, _value, _data);\n        }\n        Transfer(msg.sender, _to, _value, _data);\n        return true;\n    }\n\n      /**\n      * @dev Transfer the specified amount of tokens to the specified address.\n      *      Invokes the `tokenFallback` function if the recipient is a contract.\n      *      The token transfer fails if the recipient is a contract\n      *      but does not implement the `tokenFallback` function\n      *      or the fallback function to receive funds.\n      *\n      * @param _to    Receiver address.\n      * @param _value Amount of tokens that will be transferred.\n      */\n    function transfer(address _to, uint256 _value) public returns (bool) {\n        bytes memory empty;\n        require(transfer(_to, _value, empty));\n        return true;\n    }\n\n}\n",
  "sourcePath": "/app/contracts/dth/tokenfoundry/ERC223BasicToken.sol",
  "compiler": {
    "name": "solc",
    "version": "0.4.24+commit.e67f0147.Emscripten.clang"
  },
  "schemaVersion": "2.0.1",
  "updatedAt": "2018-10-16T07:35:53.012Z"
}