{
  "contractName": "ExchangeRateOracle",
  "abi": [
    {
      "constant": true,
      "inputs": [],
      "name": "mkrPriceFeed",
      "outputs": [
        {
          "name": "",
          "type": "address"
        }
      ],
      "payable": false,
      "stateMutability": "view",
      "type": "function"
    },
    {
      "inputs": [
        {
          "name": "mkrPriceFeed_",
          "type": "address"
        }
      ],
      "payable": false,
      "stateMutability": "nonpayable",
      "type": "constructor"
    },
    {
      "constant": true,
      "inputs": [],
      "name": "getWeiPriceOneUsd",
      "outputs": [
        {
          "name": "",
          "type": "uint256"
        }
      ],
      "payable": false,
      "stateMutability": "view",
      "type": "function"
    }
  ],
  "bytecode": "0x608060405234801561001057600080fd5b5060405160208061029b833981016040525160008054600160a060020a03909216600160a060020a0319909216919091179055610249806100526000396000f30060806040526004361061004b5763ffffffff7c010000000000000000000000000000000000000000000000000000000060003504166350ccf36b8114610050578063a60c589914610077575b600080fd5b34801561005c57600080fd5b506100656100b5565b60408051918252519081900360200190f35b34801561008357600080fd5b5061008c610191565b6040805173ffffffffffffffffffffffffffffffffffffffff9092168252519081900360200190f35b6000806000806000809054906101000a900473ffffffffffffffffffffffffffffffffffffffff1673ffffffffffffffffffffffffffffffffffffffff166359e02dd76040518163ffffffff167c01000000000000000000000000000000000000000000000000000000000281526004016040805180830381600087803b15801561013f57600080fd5b505af1158015610153573d6000803e3d6000fd5b505050506040513d604081101561016957600080fd5b5080516020909101519093509150610189670de0b6b3a7640000846101ad565b949350505050565b60005473ffffffffffffffffffffffffffffffffffffffff1681565b6000816101ce6101c585670de0b6b3a76400006101df565b6002850461020d565b8115156101d757fe5b049392505050565b60008115806101fc5750508082028282828115156101f957fe5b04145b151561020757600080fd5b92915050565b8082018281101561020757600080fd00a165627a7a723058202ffb077a5cb8632e433422fc5a1eed3ccdc5b8d041d375d22a278ac7c445f8f10029",
  "source": "pragma solidity ^0.4.21;\n\ncontract DSMath {\n  function add(uint x, uint y) internal pure returns (uint z) {\n    require((z = x + y) >= x);\n  }\n  function mul(uint x, uint y) internal pure returns (uint z) {\n    require(y == 0 || (z = x * y) / y == x);\n  }\n\n  uint constant WAD = 10 ** 18;\n\n  function wdiv(uint x, uint y) internal pure returns (uint z) {\n    z = add(mul(x, WAD), y / 2) / y;\n  }\n}\n\ncontract Medianizer {\n  function peek() constant public returns (bytes32, bool);\n}\n\ncontract ExchangeRateOracle is DSMath {\n\n  Medianizer public mkrPriceFeed;\n\n  function ExchangeRateOracle(address mkrPriceFeed_) public {\n    mkrPriceFeed = Medianizer(mkrPriceFeed_);\n  }\n\n  /**\n   * @dev Return wei price of 1 USD\n   */\n  function getWeiPriceOneUsd() public view returns(uint) {\n    // get usd price of 1 eth from maker contract\n    bytes32 priceRaw;\n    bool success;\n    (priceRaw, success) = mkrPriceFeed.peek();\n\n    // convert \"1 eth = X usd\" to \"X eth = 1 usd\"\n    uint256 weiPriceOneUsd = DSMath.wdiv(WAD, uint(priceRaw));\n\n    return weiPriceOneUsd;\n  }\n}\n",
  "sourcePath": "/app/contracts/ExchangeRateOracle.sol",
  "compiler": {
    "name": "solc",
    "version": "0.4.24+commit.e67f0147.Emscripten.clang"
  },
  "schemaVersion": "2.0.1",
  "updatedAt": "2018-10-16T07:35:52.928Z"
}