{
  "contractName": "KycCertifier",
  "abi": [
    {
      "constant": true,
      "inputs": [],
      "name": "owner",
      "outputs": [
        {
          "name": "",
          "type": "address"
        }
      ],
      "payable": false,
      "stateMutability": "view",
      "type": "function"
    },
    {
      "constant": false,
      "inputs": [
        {
          "name": "newOwner",
          "type": "address"
        }
      ],
      "name": "transferOwnership",
      "outputs": [],
      "payable": false,
      "stateMutability": "nonpayable",
      "type": "function"
    },
    {
      "anonymous": false,
      "inputs": [
        {
          "indexed": true,
          "name": "who",
          "type": "address"
        }
      ],
      "name": "Confirmed",
      "type": "event"
    },
    {
      "anonymous": false,
      "inputs": [
        {
          "indexed": true,
          "name": "who",
          "type": "address"
        }
      ],
      "name": "Revoked",
      "type": "event"
    },
    {
      "anonymous": false,
      "inputs": [
        {
          "indexed": true,
          "name": "previousOwner",
          "type": "address"
        },
        {
          "indexed": true,
          "name": "newOwner",
          "type": "address"
        }
      ],
      "name": "OwnershipTransferred",
      "type": "event"
    },
    {
      "constant": false,
      "inputs": [
        {
          "name": "_delegate",
          "type": "address"
        },
        {
          "name": "_who",
          "type": "bytes32"
        }
      ],
      "name": "addDelegate",
      "outputs": [],
      "payable": false,
      "stateMutability": "nonpayable",
      "type": "function"
    },
    {
      "constant": false,
      "inputs": [
        {
          "name": "_delegate",
          "type": "address"
        }
      ],
      "name": "removeDelegate",
      "outputs": [],
      "payable": false,
      "stateMutability": "nonpayable",
      "type": "function"
    },
    {
      "constant": false,
      "inputs": [
        {
          "name": "_who",
          "type": "address"
        }
      ],
      "name": "certify",
      "outputs": [],
      "payable": false,
      "stateMutability": "nonpayable",
      "type": "function"
    },
    {
      "constant": false,
      "inputs": [
        {
          "name": "_who",
          "type": "address"
        }
      ],
      "name": "revoke",
      "outputs": [],
      "payable": false,
      "stateMutability": "nonpayable",
      "type": "function"
    },
    {
      "constant": true,
      "inputs": [
        {
          "name": "_who",
          "type": "address"
        }
      ],
      "name": "isDelegate",
      "outputs": [
        {
          "name": "",
          "type": "bool"
        }
      ],
      "payable": false,
      "stateMutability": "view",
      "type": "function"
    },
    {
      "constant": true,
      "inputs": [
        {
          "name": "_who",
          "type": "address"
        }
      ],
      "name": "certified",
      "outputs": [
        {
          "name": "",
          "type": "bool"
        }
      ],
      "payable": false,
      "stateMutability": "view",
      "type": "function"
    },
    {
      "constant": true,
      "inputs": [
        {
          "name": "_who",
          "type": "address"
        },
        {
          "name": "_field",
          "type": "string"
        }
      ],
      "name": "get",
      "outputs": [
        {
          "name": "",
          "type": "bytes32"
        }
      ],
      "payable": false,
      "stateMutability": "view",
      "type": "function"
    },
    {
      "constant": true,
      "inputs": [
        {
          "name": "_who",
          "type": "address"
        },
        {
          "name": "_field",
          "type": "string"
        }
      ],
      "name": "getAddress",
      "outputs": [
        {
          "name": "",
          "type": "address"
        }
      ],
      "payable": false,
      "stateMutability": "view",
      "type": "function"
    },
    {
      "constant": true,
      "inputs": [
        {
          "name": "_who",
          "type": "address"
        },
        {
          "name": "_field",
          "type": "string"
        }
      ],
      "name": "getUint",
      "outputs": [
        {
          "name": "",
          "type": "uint256"
        }
      ],
      "payable": false,
      "stateMutability": "view",
      "type": "function"
    }
  ],
  "bytecode": "0x608060405260008054600160a060020a0319163317905561060f806100256000396000f3006080604052600436106100ae5763ffffffff7c01000000000000000000000000000000000000000000000000000000006000350416630777962781146100b357806314253887146100e85780635283f3391461010b57806367e7646f1461018e57806374a8f103146101af5780638da5cb5b146101d05780639cdae4ee146101e5578063ca4cbf6714610209578063cc1d4c0214610282578063f2fde38b146102a3578063fc2525ab14610209575b600080fd5b3480156100bf57600080fd5b506100d4600160a060020a03600435166102c4565b604080519115158252519081900360200190f35b3480156100f457600080fd5b50610109600160a060020a03600435166102e2565b005b34801561011757600080fd5b5060408051602060046024803582810135601f8101859004850286018501909652858552610172958335600160a060020a03169536956044949193909101919081908401838280828437509497506103509650505050505050565b60408051600160a060020a039092168252519081900360200190f35b34801561019a57600080fd5b50610109600160a060020a03600435166103df565b3480156101bb57600080fd5b50610109600160a060020a0360043516610417565b3480156101dc57600080fd5b506101726104a9565b3480156101f157600080fd5b50610109600160a060020a03600435166024356104b8565b34801561021557600080fd5b5060408051602060046024803582810135601f8101859004850286018501909652858552610270958335600160a060020a03169536956044949193909101919081908401838280828437509497506103509650505050505050565b60408051918252519081900360200190f35b34801561028e57600080fd5b506100d4600160a060020a0360043516610531565b3480156102af57600080fd5b50610109600160a060020a036004351661054f565b600160a060020a031660009081526002602052604090205460ff1690565b3360008181526002602052604090205460ff16151561030057600080fd5b600160a060020a0382166000818152600160208190526040808320805460ff1916909217909155517fd415b905d4dd806bfba99a7a0e6351bd0c9db3a9912add21c0e6bef4479f673f9190a25050565b60006001600084600160a060020a0316600160a060020a03168152602001908152602001600020600101826040518082805190602001908083835b602083106103aa5780518252601f19909201916020918201910161038b565b51815160209384036101000a600019018019909216911617905292019485525060405193849003019092205495945050505050565b600054600160a060020a031633146103f657600080fd5b600160a060020a03166000908152600260205260409020805460ff19169055565b3360008181526002602052604090205460ff16151561043557600080fd5b600160a060020a038216600090815260016020526040902054829060ff16151561045e57600080fd5b600160a060020a038316600081815260016020526040808220805460ff19169055517fb6fa8b8bd5eab60f292eca876e3ef90722275b785309d84b1de113ce0b8c4e749190a2505050565b600054600160a060020a031681565b600054600160a060020a031633146104cf57600080fd5b600160a060020a0390911660009081526002602052604090819020805460ff19166001908117825582517f77686f0000000000000000000000000000000000000000000000000000000000815291016003820152905190819003602301902055565b600160a060020a031660009081526001602052604090205460ff1690565b600054600160a060020a0316331461056657600080fd5b600160a060020a038116151561057b57600080fd5b60008054604051600160a060020a03808516939216917f8be0079c531659141344cd1fd0a4f28419497f9722a3daafe3b4186f6b6457e091a36000805473ffffffffffffffffffffffffffffffffffffffff1916600160a060020a03929092169190911790555600a165627a7a72305820654482b6b5de2bf011faf43d57ee5f2a470e86d09351d2ed1228e7477055d5f20029",
  "source": "//! The SMS-verification contract\n//!\n//! Copyright 2017 Gavin Wood, Parity Technologies Ltd.\n//!\n//! Licensed under the Apache License, Version 2.0 (the \"License\");\n//! you may not use this file except in compliance with the License.\n//! You may obtain a copy of the License at\n//!\n//!     http://www.apache.org/licenses/LICENSE-2.0\n//!\n//! Unless required by applicable law or agreed to in writing, software\n//! distributed under the License is distributed on an \"AS IS\" BASIS,\n//! WITHOUT WARRANTIES OR CONDITIONS OF ANY KIND, either express or implied.\n//! See the License for the specific language governing permissions and\n//! limitations under the License.\n\npragma solidity ^0.4.18;\n\nimport 'zeppelin-solidity/contracts/ownership/Ownable.sol';\n\ncontract KycCertifier is Ownable {\n\tevent Confirmed(address indexed who);\n\tevent Revoked(address indexed who);\n\tmodifier only_certified(address _who) { require(certs[_who].active); _; }\n\tmodifier only_delegate(address _who) { require(delegate[_who].active); _; }\n\n\tmapping (address => Certification) certs;\n\tmapping (address => Certifier) delegate;\n\n\tstruct Certification {\n\t\tbool active;\n\t\tmapping (string => bytes32) meta;\n\t}\n\n\tstruct Certifier {\n\t\tbool active;\n\t\tmapping (string => bytes32) meta;\n\t}\n\n\tfunction addDelegate(address _delegate, bytes32 _who) onlyOwner {\n\t\tdelegate[_delegate].active = true;\n\t\tdelegate[_delegate].meta['who'] = _who;\n\t}\n\n\tfunction removeDelegate(address _delegate) onlyOwner {\n\t\tdelegate[_delegate].active = false;\n\t}\n\n\tfunction certify(address _who) only_delegate(msg.sender) {\n\t\tcerts[_who].active = true;\n\t\tConfirmed(_who);\n\t}\n\tfunction revoke(address _who) only_delegate(msg.sender) only_certified(_who) {\n\t\tcerts[_who].active = false;\n\t\tRevoked(_who);\n\t}\n\n\tfunction isDelegate(address _who) public view returns (bool) { return delegate[_who].active; }\n\tfunction certified(address _who) public  view returns (bool) { return certs[_who].active; }\n\tfunction get(address _who, string _field) public view returns (bytes32) { return certs[_who].meta[_field]; }\n\tfunction getAddress(address _who, string _field) public view returns (address) { return address(certs[_who].meta[_field]); }\n\tfunction getUint(address _who, string _field) public view returns (uint) { return uint(certs[_who].meta[_field]); }\n\n}\n",
  "sourcePath": "/app/contracts/certifier/KycCertifier.sol",
  "compiler": {
    "name": "solc",
    "version": "0.4.24+commit.e67f0147.Emscripten.clang"
  },
  "schemaVersion": "2.0.1",
  "updatedAt": "2018-10-16T07:35:52.834Z"
}